0000000000031ACELGA UN        0000003.99
0000000000048COUVE MANTEIGA MA0000003.79
0000000000062NABO BRANCO      0000004.69
0000000000123ABACAXI HAVAI UN 0000011.98
0000000000161COCO VERDE UN    0000008.99
0000000000314REPOLHO ROXO UN  0000003.99
0000000000321AGRIAO MACO      0000003.29
0000000000352ALFACE AMER.UN   0000002.99
0000000000369ALFACE CRESPA UN 0000002.59
0000000000376ALFACE LISA UN   0000002.59
0000000000383ALMEIRAO MACO    0000002.99
0000000000390BETERRABA MACO   0000006.98
0000000000437ALFACE ROXA UN.  0000002.59
0000000000451CHEIRO VERDE MACO0000002.79
0000000000499COUVE FLOR UN    0000004.99
0000000000536ESCAROLA UN      0000002.99
0000000000543ESPINAFRE MACO   0000003.99
0000000000598MOSTARDA FOLHA MA0000003.99
0000000000635RABANETE UN      0000004.69
0000000000642RADICHE MACO     0000003.59
0000000000659REPOLHO VERDE UN 0000002.79
0000000000666RUCULA MACO      0000002.99
0000000000727MAMAO HAVAI/PAPAY0000004.99
0000000000994QUEIJO VERDE CAMP0000076.90
0000000001595BANANA CATURRA KG0000003.99
0000000001618JACA KG          0000007.99
0000000001694ABOBORA ITALIA KG0000005.99
0000000001700AIPIM/MANDIOCA KG0000004.59
0000000001823MEXIRICA KG      0000009.99
0000000002967CAQUI FUYU KG    0000005.99
0000000003087MELAO SAPO KG    0000006.99
0000000003124LARANJA BAHIA KG 0000009.98
0000000003247LARANJA PERA KG  0000002.99
0000000003285POKAN KG         0000004.99
0000000003360BATATA BRANCA LAV0000002.49
0000000003421CEBOLA KG        0000001.99
0000000003469QUEIJO TIROLEZ MI0000089.90
0000000003520QUIABO KG        0000021.49
0000000003568BERINJELA KG     0000004.99
0000000003599BERINJELA RAJADA 0000004.75
0000000003834QUEIJO FRIMESA PR0000115.90
0000000004411QUEIJO TIROLEZ RE0000144.55
0000000004466QUEIJO TIROLEZ MI0000057.90
0000000004497QUEIJO TIROLEZ PR0000156.90
0000000004503MELANCIA INTEIRA 0000002.49
0000000006125SALSINHA MACO    0000002.59
0000000006354COENTRO MACO     0000003.99
0000000007115MAMAO FORMOSA KG 0000008.99
0000000007238QUEIJO CRIOULO MI0000079.90
0000000007719GENGIBRE KG      0000012.99
0000000007825PEPINO SALADA/CAI0000005.99
0000000008198QUEIJO TIROLEZ PA0000162.90
0000000010184PERA PORTUGUESA K0000019.90
0000000012447MORGOTE KG       0000009.99
0000000012454BANANA OURO KG   0000011.98
0000000012751QUEIJO CRIOULO MI0000061.90
0000000012782QUEIJO PRATO CRIO0000076.90
0000000014120PERA IMP.WILLIANS0000011.79
0000000014199QUEIJO SANTA CLAR0000101.90
0000000014205QUEIJO SANTA CLAR0000099.90
0000000015882AMEIXA VERMELHA N0000007.99
0000000015899AMEIXA VERMELHA I0000022.99
0000000015905BANANA MACA KG   0000013.98
0000000015912BANANA PRATA KG  0000005.99
0000000015929COCO SECO KG     0000006.99
0000000015936LARANJA LIMA KG  0000013.98
0000000015943LIMA PERSIA KG   0000015.99
0000000015950LIMAO TAHITI KG  0000003.99
0000000015974MACA GOLDEN KG   0000018.99
0000000015981MACA GALA VERMELH0000012.99
0000000015998MACA FUJI VERMELH0000012.99
0000000016001MACA IMP.BRANCA K0000015.99
0000000016025MANGA TOMMY KG   0000006.99
0000000016032MARACUJA SUCO KG 0000017.99
0000000016056NECTARINA IMP.KG 0000028.90
0000000016070PERA NAC.KG      0000014.99
0000000016087PESSEGO NAC.KG   0000006.99
0000000016094PESSEGO IMP.KG   0000027.90
0000000016216ABOBORA MORANGA K0000002.98
0000000016223ABOBORA KABOTIA K0000002.49
0000000016230ABOBRINHA VERDE K0000004.99
0000000016247ABOBRINHA BRANCA 0000004.99
0000000016254INHAME/TAIA KG   0000011.99
0000000016261BATATA SALSA/MAND0000006.99
0000000016278CARA KG          0000012.99
0000000016308BATATA DOCE ROXA 0000004.99
0000000016315BETERRABA KG     0000003.98
0000000016346CENOURA KG       0000003.79
0000000016353CHUCHU KG        0000009.99
0000000016377JILO KG          0000018.99
0000000016391PEPINO ODDAY KG  0000004.69
0000000016407PEPINO JAPONES KG0000009.99
0000000016445PIMENTAO AMARELO 0000014.99
0000000016452PIMENTAO VERMELHO0000017.99
0000000016506TOMATE KG        0000005.99
0000000017084QUEIJO FRIMESA MU0000065.79
0000000017114ABOBORA MENINA SE0000002.99
0000000017206QUEIJO PRATO FRIM0000068.90
0000000017336MELAO ESPANHOL KG0000004.99
0000000017411GOIABA VERMELHA K0000008.99
0000000017480KIWI NAC.KG      0000014.99
0000000018081CARAMBOLA KG     0000011.99
0000000019460QUEIJO FRIMESA PA0000152.90
0000000019569TANGERINA KG     0000009.98
0000000019590ATEMOIA KG       0000015.79
0000000019606BANANA TERRA KG  0000014.99
0000000019613MELAO AMARELO C/R0000008.99
0000000019705RICOTA TIROLEZ KG0000054.90
0000000021319QUEIJO PRATO SANT0000077.90
0000000021326QUEIJO SANTA CLAR0000057.90
0000000021333QUEIJO SANTA CLAR0000057.90
0000000021340QUEIJO PRATO SANT0000079.90
0000000028905ALHO A GRANEL    0000018.70
0000000029001MANGA PALMER KG  0000003.99
0000000029513QUEIJO SANBIOS MI0000063.90
0000000030601QUEIJO SANTA CLAR0000142.90
0000000030618QUEIJO SANTA CLAR0000129.90
0000000030991TOMATE ITALIANO K0000006.99
0000000031646QUEIJO TIROLEZ GO0000183.90
0000000031653QUEIJO TIROLEZ RE0000157.90
0000000032285QUEIJO SANTA CLAR0000105.90
0000000033473RICOTA SANTA CLAR0000054.90
0000000033497RICOTA SANTA CLAR0000054.90
0000000034579LIMAO SICILIANO I0000019.99
0000000034791QUEIJO VIDATIVA P0000091.90
0000000034838QUEIJO COALHO FRI0000079.90
0000000034951RICOTA VIDATIVA T0000033.90
0000000034999QUEIJO VIDATIVA N0000081.99
0000000035002QUEIJO VIDATIVA P0000069.90
0000000035019QUEIJO COALHO VID0000073.90
0000000035026CEBOLA ROXA KG   0000008.99
0000000035163QUEIJO COALHO VID0000073.90
0000000035194QUEIJO VIDATIVA M0000051.90
0000000035200QUEIJO VIDATIVA M0000063.90
0000000037815QUEIJO FRIMESA MI0000064.90
0000000038447QUEIJO WITMARSUM 0000061.90
0000000038553QUEIJO SANTA CLAR0000105.90
0000000038560QUEIJO WITMARSUM 0000149.90
0000000038584QUEIJO TIROLEZ SU0000111.90
0000000038621QUEIJO LACFEE ZER0000063.90
0000000039246QUEIJO PRATO TIRO0000055.90
0000000039253QUEIJO TIROL MUSS0000055.90
0000000039970QUEIJO QUALITAT M0000051.90
0000000040044QUEIJO EL MAESTRO0000333.48
0000000040532QUEIJO EL MAESTRO0000218.65
0000000040594RICOTA VIDATIVA T0000033.90
0000000040624QUEIJO VIDATIVA G0000107.90
0000000040648QUEIJO EL MAESTRO0000218.65
0000000040747QUEIJO EL MAESTRO0000380.85
0000000040969QUEIJO EL MAESTRO0000146.68
0000000041133QUEIJO EL MAESTRO0000165.98
0000000041140QUEIJO EL MAESTRO0000154.38
0000000041195QUEIJO SANTA CLAR0000075.90
0000000041232QUEIJO EL MAESTRO0000173.68
0000000041522QUEIJO TIROLEZ EM0000219.05
0000000041539QUEIJO TIROLEZ AZ0000148.90
0000000043755QUEIJO SANTA CLAR0000132.90
0000000043762QUEIJO SANTA CLAR0000173.90
0000000043779QUEIJO SANTA CLAR0000173.90
0000000045346BATATA ASTERIX KG0000003.79
0000000045650QUEIJO LACFREE MI0000089.90
0000000045674CACAU KG         0000022.90
0000000045698PITAYA KG        0000025.99
0000000047852PIMENTAO VERDE KG0000005.99
0000000048170MELAO REI COM RED0000016.99
0000000048521QUEIJO SANTA CLAR0000063.90
0000000049740QUEIJO VERDE CAMP0000079.90
0000000049757QUEIJO LACFREE MU0000075.90
0000000050975QUEIJO COALHO PRE0000089.90
0000000050982QUEIJO PRESIDENT 0000094.90
0000000051002CAQUI IMPORTADO K0000039.90
0000000052092QUEIJO BOM DESTIN0000065.90
0000000053433QUEIJO FRIMESA MI0000052.90
0000000053839SUCO DE LARANJA 50000006.55
0000000054454QUEIJO EL MAESTRO0000383.55
0000000054522QUEIJO CRUZILIA G0000109.90
0000000055130QUEIJO PRESIDENT 0000075.90
0000000056212QUEIJO BOM DESTIN0000068.90
0000000056403RICOTA BOM DESTIN0000029.90
0000000057721QUEIJO CRUZILIA M0000066.90
0000000058148PERA ASIATICA IMP0000022.90
0000000058834ABACATE AVOCADO K0000019.90
0000000059619MELANCIA PINGO DO0000007.99
0000000059626MELANCIA PINGO DO0000012.99
0000000060011QUEIJO VERDE CAMP0000055.90
0000000060776BATATA NATURAL KG0000002.59
0000000060806VINAGRETE KG     0000029.90
0000000060813CENOURA RALADA/FA0000014.99
0000000060820ABOBRINHA CORTADA0000012.99
0000000060837REPOLHO FAT.KG   0000019.90
0000000060844ALHO DESCASCADO V0000071.99
0000000060851ABACAXI PEROLA VA0000025.90
0000000060868PITAYA CORTADA KG0000029.99
0000000060875MORANGO KG       0000060.90
0000000060882ABOBORA KABOTIA V0000005.99
0000000060905MIX BATATA SALSA/0000020.90
0000000060929MIX VAGEM/CENOURA0000022.90
0000000060936ABACAXI PEROLA CU0000032.99
0000000061018COCO RALADO LASCA0000059.89
0000000061032MELANCIA CUBOS KG0000019.90
0000000061049MIX DE FOLHAS KG 0000020.90
0000000061056MAMAO FORMOSA CUB0000019.90
0000000061063MELANCIA FAT.KG  0000004.90
0000000061094MELAO ESPANHOL CU0000015.99
0000000061124MIX DE UVA KG    0000019.90
0000000061209RICOTA SANTA CLAR0000064.90
0000000061377MELAO SAPO CUBOS/0000011.90
0000000061384BATATA CUBOS/PALI0000008.90
0000000061551COUVE MANTEIGA FA0000029.90
0000000061698QUEIJO FRIMESA SU0000189.90
0000000061766QUEIJO CRIOULO GO0000123.90
0000000061940QUEIJO COALHO FRI0000088.90
0000000062008QUEIJO TEIXEIRA M0000059.90
0000000062305RICOTA SANTA CLAR0000056.90
0000000063197QUEIJO POLENGHI G0000252.90
0000000063739ABOBRINHA VERDE K0000004.99
0000000063746BERINJELA KG BDJA0000007.89
0000000063753PIMENTAO VERDE KG0000013.99
0000000063760TOMATE GRAPE KG B0000036.98
0000000063777JILO KG BDJA     0000030.78
0000000063913VAGEM KG BDJA    0000033.18
0000000063944PIMENTA VERMELHA 0000024.89
0000000063951PEPINO CAIPIRA KG0000007.99
0000000063975TOMATE KG BDJA   0000013.99
0000000063982TOMATE ITALIANO K0000017.79
0000000063999PEPINO JAPONES KG0000007.99
0000000064057BATATA DOCE ROXA 0000004.90
0000000064071BETERRABA KG BDJA0000015.49
0000000064095CEBOLA ROXA MEDIA0000023.99
0000000064101CEBOLA BRANCA MED0000018.48
0000000064323QUEIJO GRAN FORMA0000199.90
0000000064828ABACAXI HAVAI COR0000029.90
0000000064835ABACAXI PEROLA CO0000029.90
0000000064842COCO SECO CORTADO0000019.90
0000000064859GOIABA VERMELHA C0000014.90
0000000064880MIX DE FRUTAS KG 0000056.99
0000000064897MAMAO FORMOSA COR0000012.99
0000000064903MAMAO PAPAYA/HAVA0000023.90
0000000064910MANGA PALMER CORT0000028.99
0000000064927MANGA TOMY CORTAD0000025.99
0000000064934MARACUJA SUCO COR0000059.90
0000000064941MELANCIA CORTADA 0000002.49
0000000064965MELAO CANTALOUPE 0000024.99
0000000064972MELAO DINO CORTAD0000019.90
0000000064989MELAO ESPANHOL CO0000007.99
0000000065016MELAO ORANGE CORT0000009.99
0000000065023MELAO PINGO DE ME0000015.99
0000000065030MELAO SAPO CORTAD0000018.99
0000000065207ABACATE KG       0000004.99
0000000065450RICOTA MONTEMINAS0000029.90
0000000065467QUEIJO DUMONT MIN0000059.90
0000000065481QUEIJO ATILATTE M0000061.90
0000000065498RICOTA ATILATTE F0000036.99
0000000065603QUEIJO BOM DESTIN0000045.90
0000000065719MACA CRISPY PINK 0000006.99
0000000065733QUEIJO FRIMESA PA0000139.90
0000000065863PERA IMP.KG      0000018.99
0000000065887QUEIJO PRESIDENT 0000234.65
0000000065894QUEIJO COALHO PRE0000096.90
0000000065900LARANJA IMP.KG   0000008.99
0000000065986QUEIJO CRIOULO MI0000085.90
0000000066624QUEIJO EL MAESTRO0000104.15
0000000066785QUEIJO VIGOR PARM0000144.38
0000000066815TOMATE HOLANDES K0000013.90
0000000067607TOMATE GRAPE KG  0000009.90
0000000068642QUEIJO CRUZILIA P0000115.07
0000000068666QUEIJO CRUZILIA G0000089.90
0000000068680QUEIJO CRUZILIA B0000088.90
0000000068802MELANCIA PINGO DO0000007.99
0000000069007MELANCIA PINGO DO0000013.99
0000000072038QUEIJO RELIQUIA S0000151.25
0000000072052QUEIJO RELIQUIA P0000126.48
0000000072069QUEIJO RELIQUIA M0000119.95
0000000072144QUEIJO VERDE CAMP0000054.55
0000000072700QUEIJO FRIMESA AZ0000140.09
0000000072717QUEIJO FRIMESA PR0000103.57
0000000072724QUEIJO FRIMESA GO0000099.35
0000000072731QUEIJO FRIMESA RE0000124.35
0000000073295ABOBORA KABOTIA C0000002.49
0000000073301ABOBORA MORANGA C0000003.49
0000000073318ABOBORA ITALIA CO0000005.90
0000000074339QUEIJO CRUZILIA G0000143.78
0000000074636QUEIJO PRESIDENT 0000108.09
0000000074889MIX PIMENTAO PICA0000031.90
0000000074964MIX BATATA/CENOUR0000023.99
0000000074971MIX SALADA SORT.H0000033.90
0000000075008SALADA DE FRUTAS 0000029.90
0000000075473QUEIJO EL MAESTRO0000322.95
0000000075480QUEIJO EL MAESTRO0000489.77
0000000075497QUEIJO EL MAESTRO0000090.39
0000000075510QUEIJO EL MAESTRO0000242.19
0000000075527QUEIJO EL MAESTRO0000242.19
0000000075701QUEIJO BASEL PARM0000121.39
0000000075718QUEIJO BASEL MONT0000106.68
0000000075732QUEIJO BASEL GOUD0000110.19
0000000075749QUEIJO BASEL MINA0000069.39
0000000075756QUEIJO BASEL PARM0000129.95
0000000075763QUEIJO BASEL EMME0000130.65
0000000075770QUEIJO BASEL SUIC0000127.75
0000000075787QUEIJO VIGOR SUIC0000165.88
0000000075800QUEIJO VIGOR BRIE0000121.65
0000000076029QUEIJO GRAN FORMA0000170.05
0000000076135QUEIJO SANTA CLAR0000147.90
0000000076258QUEIJO LA PAULINA0000117.75
0000000076265QUEIJO LA PAULINA0000121.39
0000000076272QUEIJO LA PAULINA0000108.35
0000000076333QUEIJO POLENGHI B0000136.97
0000000076340QUEIJO CAMPO LIND0000143.19
0000000076357QUEIJO POLENGHI P0000124.90
0000000076647QUEIJO ANILA NOZI0000089.35
0000000076654QUEIJO ANILA CACC0000072.69
0000000076661QUEIJO ANILA MINA0000048.65
0000000076685QUEIJO RAR PECORI0000640.28
0000000076715QUEIJO RAR TIPO G0000285.55
0000000076722QUEIJO D'OR AZUL 0000096.17
0000000076739QUEIJO D'OR BLEU 0000113.69
0000000076753QUEIJO TIROLEZ ES0000191.05
0000000076760QUEIJO TIROLEZ BR0000128.25
0000000076777QUEIJO TIROLEZ RE0000175.79
0000000076814QUEIJO D'OR TIPO 0000122.45
0000000076821QUEIJO D'OR PARM.0000136.79
0000000076838QUEIJO COALHO D'O0000097.45
0000000076869QUEIJO SKANDIA GO0000149.65
0000000078108QUEIJO VIGOR PROV0000109.90
0000000078337QUEIJO VIGOR GORG0000080.65
0000000082693MACA CRIPPS PINK 0000013.98
0000000085595QUEIJO SANTA CLAR0000082.90
0000000086691MELANCIA MAGALI K0000010.98
0000000091015QUEIJO MONTEMINAS0000039.90
0000000094405QUEIJO VERSOS DE 0000149.90
0000000094412QUEIJO CRUZILIA M0000129.90
0000000095044SUCO DE ABACAXI C0000009.55
0000000095051SUCO DE GOIABA 500000005.08
0000000095068AGUA DE COCO 500M0000005.85
0000000095075SUCO DE MANGA 5000000006.47
0000000095082SUCO DE MARACUJÁ 0000007.25
0000000095099SUCO DE MELANCIA 0000006.38
0000000097529QUEIJO CRUZILIA S0000180.90
0000000097536QUEIJO LAC LELO P0000105.90
0000000097833QUEIJO COALHO CRU0000103.90
0000000098090QUEIJO FRIMESA CO0000086.90
0000001154801MACA GOLDEN KG   0000018.99
0000031592758ALHO CONDOR N.1500000004.99
0000031618090UVA VITORIA BENAS0000007.25
0000031625067ALHO CONDOR H.1500000005.99
0000031653992BROCOLIS UN      0000005.99
0000031780223UVA VITORIA S/SEM0000010.75
0000031780278UVA BRANCA S/SEME0000013.99
0000031788427OVOS MANTIQUEIRA 0000024.49
0000032181630ALHO PORO UN     0000004.99
0000032185188MAMAO FORMOSA CUB0000019.90
0000032185201COCO RALADO LASCA0000059.89
0000032186420MELANCIA FAT.KG  0000004.90
0000033408200ALFACE HIDROPONIC0000003.79
0000078903784SOB.BATAVO CREAMY0000004.59
0000078903791SOB.BATAVO CREAMY0000004.59
0000078906679REQUEIJAO AVIACAO0000015.99
0000078912274SOB.BATAVO FLAN B0000004.59
0000078912298SOB.BATAVO FLAN B0000004.59
0000078936171IOG.NESTLE GREGO 0000002.69
0000078936195SOB.NESTLE CHANDE0000006.49
0000200000145ABACAXI PEROLA UN0000008.99
0000301028208PIMENTA BIQUINHO 0000004.69
0000301028215REPOLHO VERDE GAS0000007.99
0000301028222VAGEM MACARRAO AR0000009.99
0000301028239TOMATE POMODORO A0000009.49
0000301028246TOMATE GRAPE BENS0000002.59
0000301028253TOMATE GRAPE MAIS0000002.99
0000301028277TOMATE SWEET GRAP0000006.99
0000301028284TOMATE CEREJA BER0000009.89
0000301028307TOMATE GRAPE MAIS0000013.99
0000301028321TOMATINHO BERTOLI0000003.59
0040141070760MACA 850G PCT    0000006.99
0040141379535BROCOLIS UN      0000005.99
0040141586544BATATA PRIMEIRINH0000007.99
0040141586575BATATA PRIMEIRINH0000007.99
0042882328513UVA BRANCA S/SEME0000010.99
0042882328605UVA BRANCA S/SEME0000010.99
0042882666127UVA BRANCA S/SEME0000010.99
0070341034545UVA BRANCA S/SEME0000010.99
0070341054864MILHO VERDE 500G 0000004.97
0074468019119ABOBRINHA BRANCA 0000007.99
0074468019263LICHIA BDJA      0000009.99
0074468228290NOZES C/CASCA 3500000024.99
0074468228306ACEROLA BDJA     0000012.99
0074468228351MIX NOZES 200G   0000016.99
0074468228375PESSEGO  BDJA    0000008.99
0074468228399NESPERA BDJA     0000025.90
0074468228429NESPERA BDJA     0000025.90
0074468228450TAMARINDO BDJA   0000017.98
0074468228474CAJU BDJA        0000015.99
0074468228603CARAMBOLA BDJA   0000010.99
0074468228658FIGO ROXO BDJA   0000019.99
0074468228931JAMBO ROSA BDJA  0000029.90
0074468228955JAMBO ROSA BDJA  0000029.90
0074468319325LICHIA BDJA      0000009.99
0074468586314CEREJA BDJA      0000008.99
0074468669932UVA ROSADA/NIAGAR0000004.99
0074468751149MORANGO BDJA     0000007.99
0556385805919UVA PRETA S/SEMEN0000007.99
0602883324978BROCOLIS UN      0000005.99
0602883324985COUVE FLOR UN    0000004.99
0602883325005MORANGO BDJA     0000007.99
0602883440395MORANGO BDJA     0000007.99
0602883464162UVA PRETA S/SEMEN0000007.99
0602883464179UVA ROSADA/NIAGAR0000004.99
0602883793910MIRTILO BDJA     0000007.99
0602883876866ALFACE MIMOSA HID0000006.98
0602883876873ACELGA HIDROPONIC0000006.98
0602883876880ALFACE MIMOSA ROX0000006.98
0602883879850MORANGO BDJA     0000007.99
0602883942943UVA NIAGARA 1,3KG0000018.15
0606529199906OVOS PVC BCO C/200000010.99
0606529199913OVOS PVC VERMELHO0000010.99
0606529199920OVOS PVC VERMELHO0000010.99
0606529199937OVOS PVC BCO C/200000010.99
0606529458201UVA ROSADA/NIAGAR0000004.99
0609963025152ALFACE LISA ROXA 0000005.99
0609963025169ALFACE CRESPA ROX0000006.98
0609963493708CALDO DE CANA PIN0000014.49
0609963966882ALFACE ROMANA ROX0000006.98
0609963966899ALFACE ROMANA HID0000006.98
0613960131853BATATA PRIMEIRINH0000007.99
0618231622221ALFACE HIDROPONIC0000003.79
0618231697182MORANGO BDJA     0000007.99
0618231881543MORANGO BDJA     0000007.99
0618231926701BATATA PRIMEIRINH0000007.99
0618341603332ABACAXI GOLD UN  0000015.99
0618341872028CEBOLA 1KG PCT   0000004.99
0618341873032QUIABO PE VERMELH0000008.79
0618341873056PEPINO PE VERMELH0000005.99
0618341873063BROCOLIS PE VERME0000005.99
0618341873070ABOBRINHA VERDE P0000005.99
0618341873094JILO PE VERMELHO 0000006.59
0618341873100PEPINO JAPONES PE0000005.99
0618341873117COUVE FLOR PE VER0000004.99
0618341873131CENOURA PE VERMEL0000002.99
0618341873148VAGEM PE VERMELHO0000008.79
0618341873155PIMENTAO MISTO PE0000007.99
0618341873162AIPIM DESCASCADO 0000006.98
0618341873186TOMATE CEREJA PE 0000006.99
0618341971936BATATA SALSA PE V0000004.99
0618341971943ERVILHA PE VERMEL0000008.99
0618341972032UVA ROSADA/NIAGAR0000004.99
0618341972049UVA ROSADA/NIAGAR0000004.99
0618341972056PIMENTA CAMBUCI P0000005.99
0618341972063PIMENTA AMERICANA0000005.99
0618341972070PIMENTA DEDO DE M0000006.59
0618341972155PIMENTA BIQUINHO 0000006.99
0619205050996ALFACE LISA HIDRO0000006.98
0619205051016ALFACE CRESPA HID0000006.98
0619205051030SALSINHA HIDROPON0000004.98
0619205416396SERIGUELA SABOR D0000006.99
0619205758489MORANGO BDJA     0000007.99
0630941723883MORANGO BDJA     0000007.99
0630941840580AMEIXA 500G BDJA 0000004.99
0631430082658MORANGO BDJA     0000007.99
0631430171215TOMATE GRAPE 180G0000002.99
0631430171222TOMATE GRAPE 300G0000004.75
0631430171239TOMATE GRAPE 500G0000006.99
0631430171246TOMATE HOLANDES 50000008.98
0631430171253TOMATE COCKTAIL 30000005.99
0631430555152UVA PRETA S/SEMEN0000007.99
0631430555169UVA VERMELHA S/SE0000007.99
0631430555176UVA VERMELHA S/SE0000007.99
0631430555183UVA BRANCA S/SEME0000010.99
0631430555190UVA BRANCA S/SEME0000010.99
0631430555206UVA VERMELHA S/SE0000007.99
0631430555213UVA PRETA S/SEMEN0000007.99
0631430555220UVA BRANCA S/SEME0000010.99
0631911445279LICHIA BDJA      0000009.99
0631911445286AMEIXA 500G BDJA 0000004.99
0631911483530LICHIA BDJA      0000009.99
0729208125673MIRTILO BDJA     0000007.99
0735201009322AIPIM DESCASCADO 0000006.98
0735810173865MORANGO BDJA     0000007.99
0736532132277BANANA CHIPS SALG0000002.99
0736532142887COCO VERDE AUTENT0000010.99
0736532161857COGUMELO SHITAKE 0000017.98
0736532788917MACA 850G PCT    0000006.99
0742832142625COUVE FLOR UN    0000004.99
0742832318716SERIGUELA SABOR D0000006.99
0742832770392UVA RUBI 500G    0000007.29
0742832770408UVA ITALIA 500G  0000010.99
0742832770415UVA VERMELHA C/SE0000006.99
0742832770439UVA PRETA S/SEMEN0000007.99
0742832770446UVA ROSADA/NIAGAR0000004.99
0742832770453UVA BRASIL 500G  0000007.88
0742832772174BROCOLIS UN      0000005.99
0742832988384AIPIM DESCASCADO 0000006.98
0742832992299BATATA PRIMEIRINH0000007.99
0742832998666UVA RUBI 500G    0000007.29
0742832998673UVA ITALIA 500G  0000010.99
0742832998680UVA VERMELHA C/SE0000006.99
0742832998697UVA PRETA S/SEMEN0000007.99
0742832998710UVA NIAGARA 1,3KG0000018.15
0742832998727UVA BRASIL 500G  0000007.88
0742832998734UVA ROSADA/NIAGAR0000004.99
0751320161680COGUMELO PARIS 300000014.99
0751320297471OVOS PVC BCO C/300000015.99
0751320297488OVOS PVC VERM.C/30000015.99
0751320297495OVOS PVC BCO C/300000015.99
0751320297501OVOS PVC VERM.C/30000015.99
0751320297587OVOS VERMELHO C/10000006.99
0751320297594OVOS BCO GDE C/120000007.99
0751320297600OVOS VERMELHO C/10000006.99
0751320449313COGUMELO PARIS 300000014.99
0751320449320COGUMELO SHITAKE 0000017.98
0751320522894COGUMELO SHIMEJI 0000016.98
0751320522917COGUMELO PARIS 200000007.99
0751320754370AMEIXA 500G BDJA 0000004.99
0751320754387UVA ROSADA/NIAGAR0000004.99
0751320766007ALFACE AMER.UN   0000002.99
0789006006871VAGEM MARIA&ANA 20000008.98
0789300005105UVA VERMELHA C/SE0000006.99
0789300005112UVA ITALIA 500G  0000010.99
0789947990185CEBOLINHA DEVILE 0000004.98
0793573249555MORANGO BDJA     0000007.99
0883750310007CEREJA IMP.250G  0000013.99
1004288232862UVA BRANCA S/SEME0000010.99
2800001252709PHYSALIS 100G    0000013.99
3023260031741QUEIJO PRESIDENT 0000019.99
3073780107440QUEIJO BABYBEL MI0000042.85
3073780965828QUEIJO BABYBEL MI0000042.85
3073781197013QUEIJO BEL PALITO0000042.75
3155250349793CHANTILLY PRESIDE0000035.69
3161712002113QUEIJO ILE DE FRA0000058.78
3161712996146QUEIJO ILE DE FRA0000043.69
3228020191349QUEIJO PRESIDENT 0000028.65
3228020481846QUEIJO PRESIDENT 0000028.69
3228023980186QUEIJO PRESIDENT 0000016.79
3228024140213QUEIJO PRESIDENT 0000034.15
3272770013994QUEIJO ILE DE FRA0000040.35
3530560000211QUEIJO ILE DE FRA0000058.78
4070071967072KIWI 500G BDJA   0000009.99
6191448201112TAMARA C/CAROCO 20000004.99
6191514300190TAMARA C/CAROCO 20000004.99
6191514301524TAMARA C/CAROCO 20000004.99
7365324022262UVA BRANCA S/SEME0000010.99
7622210772244CREAM CHEESE PHIL0000011.79
7750431390104MIRTILO BDJA     0000007.99
7750431800016MIRTILO BDJA     0000007.99
7751262001566MIRTILO BDJA     0000007.99
7757746000087MIRTILO BDJA     0000007.99
7758452000323MIRTILO BDJA     0000007.99
7769857142976MORANGO BDJA     0000007.99
7798201240013MIRTILO BDJA     0000007.99
7809530602189MIRTILO BDJA     0000007.99
7809576300247CEREJA IMP.250G  0000013.99
7890025008548PIMENTA AMERICANA0000011.57
7890026001654JILO MARIA&ANA 280000006.99
7890026002415PIMENTA ARDIDA MA0000005.99
7890026002545PIMENTA CAMBUCI M0000007.99
7890026006482BATATA SALSA MARI0000006.99
7890026006871VAGEM MARIA&ANA 20000008.98
7890026006970QUIABO MARIA&ANA 0000008.99
7890026006987TOMATE CEREJA MAR0000006.98
7890026008684COUVE FLOR MARIA&0000006.98
7890026009681BROCOLIS JAPONES 0000006.98
7891000027967LEITE FERM.CHAMYT0000001.69
7891000070444LEITE FERM.CHAMYT0000006.79
7891000072950IOG.NESTLE NATURA0000003.29
7891000072974IOG.NESTLE NATURA0000003.29
7891000072998IOG.NESTLE NATURA0000003.29
7891000073018IOG.NESTLE NATURA0000003.29
7891000084649REQUEIJAO NESTLE 0000007.99
7891000084663REQUEIJAO NESTLE 0000007.99
7891000094396IOG.NINHO FRUTI M0000008.69
7891000096864IOG.NESTLE GREGO 0000012.69
7891000103852IOG.NINHO MACA/BA0000002.99
7891000103937P-SUISSE NESTLE C0000009.49
7891000110096SOB.NESTLE CHANDE0000010.99
7891000241448IOG.NESTLE VITAMI0000002.99
7891000244265IOG.NESTLE MRGO 10000002.99
7891000244449IOG.NESTLE MRGO 10000014.79
7891000244548IOG.NESTLE VITAMI0000014.79
7891000252819IOG.CHAMYTO GO MR0000002.79
7891000252833IOG.CHAMYTO GO VI0000002.79
7891000260166IOG.CHAMYTO MRGO/0000003.69
7891000260524SOB.NESTLE FLAN C0000004.59
7891000260609IOG.NESTON MACA/B0000003.59
7891000261002IOG.NINHO MACA/BA0000013.99
7891000261026IOG.NINHO TRAD.540000008.99
7891000261460IOG.CHAMYTO MRGO/0000003.69
7891000261484IOG.NINHO MACA/BA0000003.29
7891000276280LEITE FERM.CHAMYT0000006.89
7891000276303LEITE FERM.CHAMYT0000006.89
7891000298671IOG.NESFIT DESN.M0000004.29
7891000298718IOG.NESFIT MRGO/A0000018.49
7891000301968IOG.NESFIT FTAS V0000018.49
7891000305775IOG.MOLICO S/LAC.0000013.79
7891000305812IOG.MOLICO S/LAC.0000003.49
7891000332269IOG.MOLICO S/LAC.0000003.49
7891000334188IOG.MOLICO S/LAC.0000007.59
7891000340004IOG.NESTLE BI-CAM0000003.69
7891000360323IOG.NESTON BI-SAB0000008.99
7891000360361IOG.NESTLE GREGO 0000012.69
7891000360620IOG.NESTLE GREGO 0000009.89
7891000360668IOG.NESTLE CHAMBI0000002.99
7891000362037IOG.NESTLE MRGO 50000006.69
7891000363256IOG.NESTLE MRGO/V0000006.69
7891000370933SOB.NESTLE CHANDE0000014.29
7891000371251IOG.NESFIT ZERO S0000004.29
7891000371299IOG.NESFIT AMEIXA0000018.49
7891000378175IOG.NESTLE NATURA0000006.79
7891000378212IOG.NESTLE NATURA0000006.79
7891000379547LEITE FERM.CHAMYT0000006.89
7891000382349IOG.NESTLE GREGO 0000002.69
7891000382387IOG.NESTLE GREGO 0000002.69
7891000390078IOG.NESTLE BI-CAM0000003.69
7891000390214IOG.NESTLE GREGO 0000002.69
7891000393536IOG.NESTLE NATURA0000006.99
7891000394632IOG.NESTLE CHAMBI0000008.99
7891000396452SOB.NESTLE CHANDE0000006.49
7891000399415P-SUISSE NINHO MA0000006.99
7891000409282IOG.NESTLE GREGO 0000002.69
7891000409305IOG.NESTLE GREGO 0000002.69
7891025101376IOG.DANONE MRGO 10000003.59
7891025106067IOG.DANONINHO P/B0000003.29
7891025109396LEITE FERM.ACTIVI0000003.99
7891025109419LEITE FERM.ACTIVI0000003.99
7891025109884P-SUISSE DANONINH0000010.49
7891025109891P-SUISSE DANONINH0000010.49
7891025109907P-SUISSE DANONINH0000013.99
7891025110668P-SUISSE DANONINH0000003.79
7891025112983P-SUISSE DANONINH0000003.79
7891025115311IOG.YOPRO PROT.150000010.49
7891025115588IOG.PROT.15G YOPR0000012.89
7891025115595IOG.PROT.15G YOPR0000012.89
7891025116790REQUEIJAO DANONE 0000008.79
7891025117162LEITE FERM.ACTIVI0000004.29
7891025117742LEITE FERM.ACTIVI0000006.89
7891025117773LEITE FERM.ACTIVI0000006.89
7891025117797LEITE FERM.ACTIVI0000006.89
7891025119524P-SUISSE DANONINH0000013.99
7891025120223IOG.DANONE NATURA0000003.99
7891025120230IOG.DANONE NATURA0000003.99
7891025120674IOG.DANONE CORPUS0000010.89
7891025121244IOG.DANONE NATURA0000003.75
7891025121251IOG.DANONE NATURA0000003.59
7891025121435IOG.YOPRO PROT.150000010.59
7891025121442IOG.YOPRO PROT.150000010.59
7891025121619SOB.DANETTE CHOC.0000015.99
7891025121909IOG.DANONE COCO 10000012.99
7891025121916IOG.DANONE VITAMI0000012.99
7891025121923IOG.DANONE MRGO 10000012.99
7891025123194LEITE FERM.ACTIVI0000016.99
7891025123200LEITE FERM.ACTIVI0000016.99
7891025123217LEITE FERM.ACTIVI0000016.99
7891025123392IOG.DANONE GREGO 0000014.89
7891025123453LEITE FERM.ACTIVI0000015.79
7891025123460LEITE FERM.ACTIVI0000015.79
7891025123477LEITE FERM.ACTIVI0000015.79
7891025123484LEITE FERM.ACTIVI0000015.79
7891025124030LEITE FERM.ACTIVI0000017.99
7891025124177IOG.DANONE CORPUS0000016.99
7891025124320LEITE FERM.ACTIVI0000011.99
7891025124436BEB.LACTEA DANONE0000007.99
7891025124481IOG.DANONE KIDS M0000003.69
7891025124504IOG.DANONE KIDS M0000012.99
7891025124535IOG.DANONINHO BOM0000003.99
7891025124542IOG.DANONINHO BOM0000003.99
7891025124559IOG.DANONE NATURA0000006.99
7891025124566IOG.DANONE NATURA0000006.99
7891025124573IOG.DANONE NATURA0000005.39
7891025124597IOG.DANONE NATURA0000005.39
7891025124603IOG.DANONE NATURA0000005.39
7891025124733IOG.DANONE QUAKER0000009.59
7891025124849IOG.DANONE QUAKER0000003.69
7891025124856IOG.DANONE QUAKER0000003.69
7891025124863IOG.DANONE QUAKER0000003.69
7891025124870SOB.DANETTE CHOC.0000006.99
7891025124917SOB.DANETTE CREMO0000003.99
7891025124924SOB.DANETTE CREMO0000003.99
7891025125181IOG.PROT.23G YOPR0000015.48
7891025125204P-SUISSE DANONINH0000020.78
7891025125365IOG.DANONE S/LAC.0000018.28
7891025125372IOG.DANONE S/LAC.0000018.28
7891025501534REQUEIJAO POCOS D0000009.98
7891025699880REQUEIJAO DANONE 0000008.59
7891032016762CEREJA BDJA      0000008.99
7891097000126IOG.BATAVO C/FTAS0000011.49
7891097000133IOG.BATAVO GREGO 0000010.99
7891097000140IOG.BATAVO GREGO 0000010.99
7891097000171SOB.ELEGE CHOC.300000007.49
7891097000195IOG.BATAVO NATURA0000003.19
7891097000201IOG.BATAVO NATURA0000003.19
7891097000256IOG.BATAVO GREGO 0000002.99
7891097000270IOG.BATAVO GREGO 0000002.99
7891097000522SOB.BATAVO FLAN C0000007.99
7891097000607IOG.BATAVO PED.FT0000002.59
7891097000638IOG.BATAVO PED.FT0000002.59
7891097000713IOG.BATAVO P.ZERO0000002.89
7891097000720IOG.BATAVO P.ZERO0000002.89
7891097000775IOG.BATAVO P.ZERO0000002.99
7891097000799IOG.BATAVO NATURA0000007.59
7891097000829SOB.BATAVO NUV QU0000002.89
7891097000843SOB.BATAVO NUV QU0000002.89
7891097000850SOB.BATAVO NUV QU0000002.89
7891097000881SOB.BATAVO PUDIM 0000008.69
7891097000935CREME DE RICOTA P0000008.99
7891097000997CREME DE RICOTA P0000008.99
7891097001253IOG.BATAVO P.ZERO0000011.99
7891097001260IOG.BATAVO P.ZERO0000011.99
7891097001352QUEIJO PRESIDENT 0000021.59
7891097001581REQUEIJAO POCOS D0000017.39
7891097010781IOG.BATAVO C/FTAS0000011.49
7891097010828IOG.BATAVO C/FTAS0000011.49
7891097011580P-SUISSE PATRULHA0000006.79
7891097017193LEITE FERM.PATRUL0000006.99
7891097086311IOG.BATAVO C/FTAS0000011.49
7891097089527P-SUISSE ELEGE BO0000006.59
7891097090004REQUEIJAO BATAVO 0000008.49
7891097090011REQUEIJAO BATAVO 0000008.49
7891097101533IOG.BATAVO NATURA0000003.19
7891097101601IOG.BATAVO NATURA0000003.19
7891097101618IOG.BATAVO P.ZERO0000003.29
7891097101632IOG.BATAVO NATURA0000003.19
7891097101717BEB.LACTEA BATAVO0000004.99
7891097101854BEB.LACTEA BATAVO0000004.99
7891097101861BEB.LACTEA BATAVO0000004.99
7891097101892IOG.BATAVO P.ZERO0000003.29
7891097101977LEITE FERM.ELEGE 0000007.29
7891097101984LEITE FERM.ELEGE 0000007.29
7891097101991LEITE FERM.ELEGE 0000007.29
7891097102219IOG.BATAVO PATRUL0000004.99
7891097102387CREAM CHEESE PRES0000009.98
7891097102820SOB.BATAVO NUV QU0000010.89
7891097102851IOG.BATAVO MRGO 10000002.99
7891097102868IOG.BATAVO CEREAL0000002.99
7891097102875IOG.BATAVO GRAVIO0000002.99
7891097102936IOG.BATAVO JABUTI0000002.99
7891097103087SOB.BATAVO NUV QU0000010.89
7891097103094SOB.BATAVO NUV QU0000002.89
7891097103384IOG.BATAVO MRGO 10000014.59
7891097103391IOG.BATAVO CEREAL0000014.59
7891097103643IOG.BATAVO P.ZERO0000016.69
7891097103650IOG.BATAVO P.ZERO0000016.69
7891097103780IOG.BATAVO CAMADA0000002.89
7891097103841QUEIJO PRESIDENT 0000014.99
7891097103858QUEIJO PRATO PRES0000014.99
7891097104190IOG.BATAVO NATURA0000002.99
7891097104220CREAM CHEESE PRES0000016.99
7891097104237CREAM CHEESE PRES0000016.99
7891097104350CREME DE RICOTA P0000014.79
7891097104367CREME DE RICOTA P0000014.79
7891097104374IOG.BATAVO GRAVIO0000014.59
7891097104381IOG.BATAVO JABUTI0000014.59
7891097104404REQUEIJAO BATAVO 0000017.49
7891097104534IOG.BATAVO BOB ES0000004.59
7891097104541IOG.BATAVO BOB ES0000004.59
7891097104619QUEIJO PRESIDENT 0000024.89
7891097104633IOG.BATAVO P.ZERO0000003.29
7891097104640IOG.BATAVO P.ZERO0000016.69
7891097104701QUEIJO PRATO PRES0000012.69
7891097104770IOG.BATAVO GREGO 0000013.99
7891097104794REQUEIJAO BATAVO 0000018.99
7891097104800REQUEIJAO POCOS D0000009.99
7891097104848IOG.BATAVO PROBIO0000011.99
7891097104855IOG.BATAVO PROBIO0000011.99
7891097104862IOG.BATAVO PROBIO0000002.79
7891097104879IOG.BATAVO PROBIO0000003.69
7891097104886IOG.BATAVO PROBIO0000003.69
7891097104893IOG.BATAVO PROBIO0000003.69
7891097105074QUEIJO PRESIDENT 0000010.97
7891097105203IOG.BATAVO BOB ES0000004.59
7891097105579SOB.BATAVO NUV QU0000002.89
7891097105654SOB.BATAVO NUV QU0000002.89
7891097105678IOG.BATAVO GREGO 0000012.99
7891097105685SOB.BATAVO NUV QU0000002.89
7891097105739QUEIJO GALBANI MU0000008.99
7891097105746QUEIJO GALBANI MU0000018.49
7891097105869QUEIJO RALADO GAL0000006.99
7891097105876QUEIJO RALADO GAL0000012.99
7891097105883QUEIJO GALBANI PA0000028.89
7891097105975CREME DE RICOTA G0000008.49
7891097105982CREME DE RICOTA G0000008.49
7891097105999CREME DE RICOTA G0000015.99
7891097106002CREME DE RICOTA G0000015.99
7891097106033QUEIJO PRESIDENT 0000007.79
7891097106057IOG.ELEGE MRGO/VI0000007.89
7891097106095QUEIJO PRESIDENT 0000009.49
7891097106101IOG.BATAVO P.ZERO0000002.89
7891097106156LEITE FERM.ELEGE 0000012.99
7891097106170P-SUISSE ELEGE BO0000006.59
7891097106248IOG.BATAVO P.ZERO0000012.99
7891097106347SOB.BATAVO CREAMY0000002.99
7891097106422IOG.BATAVO P.ZERO0000016.69
7891097106552QUEIJO GALBANI PA0000031.25
7891097106590LEITE FERM.BATAVI0000007.29
7891097106613LEITE FERM.BATAVI0000007.29
7891097106637LEITE FERM.BATAVI0000007.29
7891097106750IOG.ELEGE BOB ESP0000002.99
7891097106767IOG.ELEGE BOB ESP0000002.99
7891097106842IOG.BATAVO PROBIO0000016.49
7891097106903P-SUISSE BATAVINH0000006.99
7891097106989SOB.BATAVO PUDIM 0000004.39
7891097106996IOG.BATAVO BOB ES0000004.99
7891097107016IOG.BATAVO PROBIO0000016.49
7891097107023IOG.BATAVO P.ZERO0000003.05
7891097107030IOG.BATAVO PROBIO0000016.49
7891097107146IOG.BATAVO GREGO 0000002.99
7891097107153IOG.BATAVO P.ZERO0000012.49
7891097107184QUEIJO PRESIDENT 0000011.25
7891097107191IOG.PARMALAT S/LA0000003.95
7891097107214IOG.PARMALAT S/LA0000003.95
7891097107221IOG.PARMALAT S/LA0000003.95
7891097107238REQUEIJAO GALBANI0000014.69
7891097107252IOG.BATAVO GREGO 0000002.99
7891097107269REQUEIJAO PRESIDE0000014.88
7891097107276REQUEIJAO PRESIDE0000014.88
7891097107283REQUEIJAO PRESIDE0000014.88
7891097107344IOG PARMALAT FIT 0000016.25
7891097107351IOG PARMALAT FIT 0000016.25
7891097107443IOG PARMALAT FIT 0000005.45
7891097107450IOG PARMALAT FIT 0000005.45
7891097107696SOB.BATAVO BRIGAD0000008.99
7891097107870QUEIJO PARMALAT M0000013.99
7891143001077QUEIJO PRATO POLE0000015.48
7891143001206QUEIJO POLENGHI C0000016.99
7891143005891QUEIJO POLENGHI M0000016.25
7891143012592CREAM CHEESE POLE0000014.05
7891143013186REQUEIJAO POLENGH0000011.69
7891143013193REQUEIJAO POLENGH0000010.99
7891143013292QUEIJO POLENGHI C0000023.95
7891143013308QUEIJO POLENGHI B0000023.95
7891143013919REQUEIJAO POLENGH0000011.49
7891143015937QUEIJO POLENGUINH0000003.99
7891143017399QUEIJO POLENGUINH0000014.99
7891143017405QUEIJO POLENGUINH0000014.99
7891143017436QUEIJO POLENGUINH0000007.99
7891143017443QUEIJO POLENGUINH0000007.99
7891143018921QUEIJO POLENGHINH0000008.49
7891143019058CREAM CHEESE POLE0000014.45
7891143019065REQUEIJAO POLENGH0000013.89
7891143019072QUEIJO PRATO POLE0000017.79
7891143019089CHANTILLY POLENGH0000047.49
7891143020023MOLHO POLENGHI CE0000012.39
7891143020030MOLHO POLENGHI CH0000015.69
7891143020399QUEIJO POLENGHI M0000012.99
7891143020429QUEIJO PRATO POLE0000013.69
7891143020641QUEIJO SKANDIA GO0000027.90
7891143020795QUEIJO POLENGHINH0000008.49
7891143020986QUEIJO POLENGHI E0000025.25
7891143021235QUEIJO CAMPO LIND0000029.90
7891143021341QUEIJO CAMPO LIND0000049.55
7891143021358QUEIJO CAMPO LIND0000028.18
7891143021365QUEIJO CAMPO LIND0000028.18
7891156001040LEITE FERM.YAKULT0000011.99
7891156002030LEITE FERM.YAKULT0000013.99
7891156003068LEITE FERM.YAKULT0000014.79
7891156011018SUPLEMENTO HILINE0000005.49
7891156020218SUCO YAKULT MACA 0000004.49
7891156070015SOB.YAKULT SOFYL 0000002.79
7891156072019SOB.YAKULT SOFYL 0000002.79
7891156075010SOB.YAKULT SOFYL 0000002.79
7891156076178SUPLEMENTO TAFFMA0000005.59
7891156076185SUPLEMENTO HILINE0000005.49
7891156076246LEITE FERM.YAKULT0000011.99
7891515925307IOG.BATAVO NATURA0000003.19
7891999004116QUEIJO RALADO VIG0000031.59
7891999004826QUEIJO VIGOR PARM0000034.89
7891999005830QUEIJO VIGOR BRIE0000018.19
7891999006264QUEIJO VIGOR CAME0000023.19
7891999006271QUEIJO VIGOR GORG0000014.99
7891999006646FONDUE DE CHOCOLA0000037.79
7891999007735QUEIJO VIGOR EMME0000031.49
7891999008404QUEIJO VIGOR GRUY0000028.59
7891999008923QUEIJO VIGOR GOUD0000031.90
7891999014092QUEIJO FAIXA AZUL0000039.69
7891999014153SOB.VIGOR CHOC.180000005.79
7891999014160SOB.VIGOR CHOC.BC0000004.99
7891999014528QUEIJO FAIXA AZUL0000049.89
7891999014887IOG.VIGOR NATURAL0000004.49
7891999014894IOG.VIGOR NATURAL0000004.49
7891999015228CHANTILLY VIGOR S0000036.90
7891999144461REQUEIJAO VIGOR C0000007.19
7891999144485REQUEIJAO VIGOR T0000007.19
7891999904805LEITE FERM.VIGOR 0000007.19
7891999960054QUEIJO RALADO FAI0000006.99
7891999970053QUEIJO RALADO VIG0000005.99
7891999970107QUEIJO RALADO VIG0000010.79
7892857020088LARANJA LIMA 1.5K0000012.99
7892857020262TANGERINA 1.5KG P0000011.98
7892857020279UVA ITALIA 500G  0000010.99
7892857020316UVA ROSADA/NIAGAR0000004.99
7892857020323UVA RUBI 500G    0000007.29
7892857020927ENDIVIA BENASSI 40000018.85
7892857021085CEREJA IMP.250G  0000013.99
7892857021184CEBOLA 1KG PCT   0000004.99
7892857029982AMEIXA 500G BDJA 0000004.99
7892857033347MIRTILO BDJA     0000007.99
7892857060176CAJU BDJA        0000015.99
7892857083632MACA 850G PCT    0000006.99
7893333325000CREAM CHEESE PHIL0000012.99
7893595789213UVA VERMELHA S/SE0000007.99
7893595789220UVA PRETA S/SEMEN0000007.99
7893595789237UVA BRANCA S/SEME0000010.99
7893595789268UVA BRANCA S/SEME0000010.99
7893595789299UVA PRETA S/SEMEN0000007.99
7893596275517BROCOLIS GASPARIN0000008.99
7893596275531REPOLHO VERDE ORG0000009.98
7893596275548REPOLHO ROXO GASP0000007.98
7893596275562ESPINAFRE GASPARI0000006.49
7893596275579CHICORIA ITALIANA0000005.69
7893596275609CENOURA GASPARIN 0000010.99
7893596275616TOMATE ITA.GASPAR0000009.99
7893596275623TOMATE GRAPE GASP0000007.99
7893596275630ALHO PORO GASPARI0000006.99
7893596275647SALSINHA GASPARIN0000006.79
7893596275654CEBOLINHA GASPARI0000004.98
7893596275661ALFACE AMER.GASPA0000007.99
7893596275678ALFACE CRESPA GAS0000005.99
7893596275685ALFACE ROXA MIMOS0000005.98
7893596275746ABOBRINHA VERDE G0000007.99
7893596275876RABANETE GASPARIN0000006.49
7894567892016MORANGO BDJA     0000007.99
7895000242214OVOS DE CODORNA C0000007.99
7895000322848UVA VERMELHA C/SE0000006.99
7895000398713CEREJA BDJA      0000008.99
7895140903983MORANGO BDJA     0000007.99
7895140904027MORANGO 900G BDJA0000042.90
7896030518027REQUEIJAO TIROLEZ0000008.99
7896030518287QUEIJO TIROLEZ CA0000026.29
7896030518294QUEIJO TIROLEZ BR0000026.29
7896030518751REQUEIJAO TIROLEZ0000008.99
7896030519611CREME DE RICOTA T0000009.69
7896030519628CREME DE RICOTA T0000009.69
7896030519826QUEIJO TIROLEZ CO0000020.59
7896030520013QUEIJO TIROLEZ CO0000035.89
7896030520198QUEIJO TIROLEZ MU0000012.18
7896030520273REQUEIJAO TIROLEZ0000012.15
7896030521614CREME DE QUEIJO T0000009.98
7896030521720QUEIJO TIROLEZ PA0000033.49
7896030521737QUEIJO TIROLEZ PA0000034.65
7896030521874QUEIJO COALHO TIR0000018.99
7896030521980QUEIJO TIROLEZ MU0000018.85
7896034680102QUEIJO PRESIDENT 0000024.99
7896034680126QUEIJO RALADO PRE0000006.29
7896034680133QUEIJO RALADO PRE0000012.29
7896066801148QUEIJO RALADO TEI0000005.49
7896066801155QUEIJO RALADO TEI0000009.89
7896066805047QUEIJO RALADO TEI0000004.99
7896066810461QUEIJO RALADO TEI0000004.49
7896068000600CREAM CHEESE DANU0000019.90
7896068000617CREAM CHEESE DANU0000019.90
7896068911173QUEIJO DANUBIO MI0000013.47
7896068911180QUEIJO DANUBIO MI0000013.47
7896068944355CREAM CHEESE DANU0000011.99
7896068944362CREAM CHEESE DANU0000011.99
7896077600136QUEIJO COALHO CRI0000035.85
7896077600204QUEIJO COALHO CRI0000035.85
7896077601195QUEIJO CRIOULO MU0000010.79
7896077601232QUEIJO CRIOULO PR0000016.19
7896077601744REQUEIJAO CRIOULO0000012.99
7896077650360QUEIJO PRATO CRIO0000011.85
7896118900058KIT SOPA CAVALLI 0000011.99
7896118900072MIX CHEIRO VERDE 0000005.99
7896118900089MIX DE FOLHAS CAV0000011.99
7896118900119COUVE CAVALLI FAT0000007.99
7896118900126MIX COUVE FLOR/BR0000008.99
7896118900133REPOLHO VERDE CAV0000004.99
7896118900157YAKISSOBA CAVALLI0000011.99
7896118900218MIX DE FOLHAS CAV0000007.49
7896118900393MIX FRUTAS CAVALL0000010.90
7896118900430VINAGRETE CAVALLI0000012.99
7896118900508SALADA DE FRUTAS 0000010.90
7896118900560MIX VAGEM/CENOURA0000006.99
7896118900584ALFACE AMER.CAVAL0000009.99
7896118900591ALFACE CRESPA CAV0000006.99
7896118900676CEBOLA CAVALLI CU0000007.99
7896118900683MIX BETERRABA/CEN0000006.99
7896118900690SALSINHA PICADA C0000004.99
7896118900706CEBOLINHA PICADA 0000004.99
7896118900751ABOBORA CABOTIA C0000007.99
7896118900768RUCULA CAVALLI 100000008.98
7896118900775SOPAO CAVALLI 2000000006.99
7896118900904SALADA PRATICA CA0000008.99
7896118900942MIX PRATICO CAVAL0000008.99
7896118900966CENOURA RALADA CA0000005.99
7896118901048SALADA DE FRUTAS 0000012.99
7896118901055SALADA RAPIDA CAV0000006.99
7896118901079MELANCIA CUBOS CA0000007.99
7896118901086COUVE CAVALLI EXT0000006.99
7896118901130ABACAXI CAVALLI C0000008.99
7896118901147MANGA CAVALLI CUB0000008.98
7896118901154MAMAO CAVALLI CUB0000008.99
7896118901161MELAO CAVALLI CUB0000008.99
7896186500020OVOS PVC BCO C/300000015.99
7896186500044OVOS PVC VERM.C/30000015.99
7896186500075OVOS PVC VERM.C/30000015.99
7896186500099OVOS PVC BCO C/300000015.99
7896186500112OVOS PVC BCO C/300000015.99
7896186500525OVOS PVC BCO C/200000010.99
7896186500532OVOS PVC BCO C/200000010.99
7896186500549OVOS PVC BCO C/200000010.99
7896186500556OVOS PVC BCO C/200000010.99
7896186500587OVOS PVC VERMELHO0000010.99
7896186501133OVOS BCO GDE C/120000007.99
7896207613142QUEIJO POLENGHI F0000006.69
7896207613159QUEIJO POLENGHI F0000007.88
7896207613241QUEIJO POLENGHI M0000015.77
7896207613296FONDUE DE QUEIJO 0000046.08
7896207640049QUEIJO POLENGHI F0000020.49
7896207640056QUEIJO POLENGHI F0000019.90
7896227310564ALHO NEGRO FAMO O0000019.99
7896227310885ALHO FAMO 150G   0000009.98
7896227310892ALHO FAMO 350G   0000029.90
7896256600209BEB.LACTEA FRUTIR0000003.99
7896256600513IOG.TIROL NATURAL0000002.79
7896256600544QUEIJO TIROL MUSS0000008.79
7896256600551QUEIJO PRATO TIRO0000008.99
7896256600803IOG.TIROL MRGO 830000009.99
7896256600810IOG.TIROL COCO 830000009.99
7896256600858IOG.TIROL FTAS/CE0000009.99
7896256600865IOG.TIROL MRGO 170000003.39
7896256600872IOG.TIROL COCO 170000003.39
7896256600902IOG.TIROL FTAS VE0000003.49
7896256600919IOG.TIROL FTAS/CE0000003.49
7896256601237BEB.LACTEA TIROL 0000005.19
7896256601251BEB.LACTEA TIROL 0000005.19
7896256601909IOG.TIROL NATURAL0000002.79
7896256602050IOG.TIROL 0% LAC.0000004.05
7896256603163BEB.LACTEA FRUTIR0000002.19
7896256603170BEB.LACTEA TIROL 0000007.59
7896256603187BEB.LACTEA FRUTIR0000002.19
7896256603194BEB.LACTEA TIROL 0000007.59
7896256603408BEB.LACTEA TIROL 0000007.59
7896256603415BEB.LACTEA FRUTIR0000002.19
7896256603484IOG.TIROL 0% LAC.0000010.99
7896256603675IOG.TIROL DIET MR0000010.49
7896256603682IOG.TIROL DIET CO0000010.49
7896256603996IOG.TIROL O% LAC.0000010.99
7896256604047BEB.LACTEA TIROL 0000005.19
7896256604337IOG.TIROL 0% LAC.0000010.99
7896256604450QUEIJO TIROL MUSS0000012.79
7896256604924BEB.LACTEA FRUTIR0000003.99
7896256605075LEITE FERM.TIROL 0000009.99
7896256605105IOG.TIROL SHREK M0000006.75
7896256605419IOG.TIROL NATURAL0000002.69
7896275960322IOG.FRIMESA MRGO 0000012.49
7896275960544IOG.FRIMESA NATUR0000002.99
7896275960643IOG.FRIMESA AMEIX0000008.99
7896275960988IOG.FRIMESA NATUR0000002.99
7896275970123IOG.FRIMESA LIGHT0000002.99
7896275970239IOG.FRIMESA MRGO 0000008.99
7896275970246IOG.FRIMESA SAL.F0000008.99
7896275970277IOG.FRIMESA COCO 0000008.99
7896275970406P-SUISSE FRIMESA 0000007.69
7896275970529IOG.FRIMESA MRGO 0000002.99
7896275970536IOG.FRIMESA COCO 0000002.99
7896275970765IOG.FRIMESA FTAS 0000012.49
7896275970772IOG.FRIMESA FTAS 0000002.99
7896275970789IOG.FRIMESA MIX F0000005.99
7896275970796IOG.FRIMESA MRGO 0000005.99
7896275970802IOG.FRIMESA ZERO 0000006.59
7896275970970IOG.FRIMESA NATUR0000002.99
7896275970994IOG.FRIMESA LIGHT0000002.99
7896275980061IOG.FRIMESA LIGHT0000011.69
7896275980078IOG.FRIMESA LIGHT0000011.69
7896275980108IOG.FRIMESA LIGHT0000003.09
7896275980290IOG.FRIMESA MRGO/0000005.99
7896275980306IOG.FRIMESA COCO 0000012.49
7896275980436IOG.FRIMESA SAL.F0000005.99
7896275980498SOB.FRIMESA CHOC.0000004.19
7896275980504SOB.FRIMESA FLAN 0000004.19
7896275980511IOG.FRIMESA BI-CA0000003.29
7896275980528IOG.FRIMESA BI-CA0000003.29
7896275980658IOG.FRIMESA REST.0000002.99
7896275980665IOG.FRIMESA REST.0000002.99
7896275980801LEITE FERM.FRIMES0000002.99
7896275980986SOB.FRIMESA CHOC.0000004.19
7896275981150LEITE FERM.FRIMES0000011.99
7896275982546SOB.FRIMESA DOCE 0000004.19
7896275982645IOG.FRIMESA PROTE0000005.49
7896275982652IOG.FRIMESA PROTE0000005.49
7896275982669IOG.FRIMESA PROTE0000005.49
7896275982737LEITE FERM.FRIMES0000016.49
7896275982881SOB.FRIMESA FLAN 0000004.19
7896275982980SOB.FRIMESA MILHO0000004.19
7896275983079IOG.FRIMESA NATUR0000002.69
7896275983192IOG.FRIMESA MIX F0000005.99
7896275983949QUEIJO FRIMESA MU0000008.99
7896275983956QUEIJO PRATO FRIM0000010.49
7896275983963QUEIJO FRIMESA CH0000012.69
7896275983994REQUEIJAO FRIMESA0000009.99
7896275984038IOG.FRIMESA GRAOS0000003.99
7896275984076IOG.FRIMESA NATUR0000013.99
7896275984120SOB.FRIMESA FLAN 0000004.19
7896275984199QUEIJO FRIMESA GO0000016.99
7896275984731IOG.FRIMESA PED.F0000009.38
7896275984748IOG.FRIMESA PED.F0000009.38
7896275984762IOG.FRIMESA NATUR0000009.98
7896275984779IOG.FRIMESA PED.F0000009.38
7896275984809IOG.FRIMESA BI-CA0000003.29
7896275984922IOG.FRIMESA NATUR0000003.55
7896275985080QUEIJO RALADO FRI0000005.95
7896275985332QUEIJO FRIMESA MU0000010.67
7896291903020AMEIXA JANDIRA C/0000011.98
7896291905123BANANA PASSA JAND0000014.98
7896291906137AMENDOA JANDIRA S0000017.99
7896291907035AMEIXA JANDIRA C/0000006.90
7896291907042UVA PASSA JANDIRA0000005.98
7896291907530NOZES JANDIRA S/C0000015.98
7896291907936AMEIXA JANDIRA S/0000012.98
7896291909121UVA PASSA JANDIRA0000009.98
7896291920331CASTANHA DO PARA 0000028.99
7896291933010AMEIXA JANDIRA C/0000011.98
7896291933119AMENDOA JANDIRA S0000021.98
7896291933416CASTANHA DE CAJU 0000025.99
7896291933515CASTANHA DO PARA 0000049.90
7896291933713DAMASCO JANDIRA T0000019.98
7896291938817NOZES JANDIRA S/C0000015.99
7896291939012TAMARAS JANDIRA 10000012.98
7896291939111UVA PASSA JANDIRA0000012.99
7896291939210UVA PASSA JANDIRA0000009.79
7896291950444CRAN BERRY JANDIR0000014.98
7896291952103CASTANHA DO PARA 0000015.99
7896291953667AMENDOA JANDIRA D0000029.90
7896291960207UVA PASSA JANDIRA0000007.99
7896291965035MIX APERITIVO JAN0000015.98
7896291965042MIX FRUTAS JANDIR0000012.98
7896291969736AMENDOA JANDIRA L0000016.98
7896291970718AMENDOA JANDIRA L0000016.98
7896291998224AMENDOA JANDIRA T0000029.90
7896291999276NOZES JANDIRA C/C0000008.99
7896291999283FRUTAS CRISTALIZA0000006.99
7896291999290DAMASCO JANDIRA T0000013.98
7896294900293REQUEIJAO TIROL C0000017.99
7896294900712REQUEIJAO TIROL T0000007.49
7896294900743REQUEIJAO TIROL 00000010.89
7896294900804REQUEIJAO TIROL L0000007.49
7896294901443REQUEIJAO TIROL C0000014.99
7896294901559REQUEIJAO TIROL C0000014.99
7896294901580REQUEIJAO TIROL C0000014.99
7896294901597REQUEIJAO TIROL C0000007.99
7896294902044QUEIJO RALADO TIR0000007.29
7896294902075QUEIJO RALADO TIR0000007.29
7896294902273QUEIJO TIROL MUSS0000014.99
7896294902280QUEIJO PRATO TIRO0000016.99
7896294902464IOG.TIROL BATIDO 0000010.49
7896294902488QUEIJO TREZE TILI0000025.29
7896294902495QUEIJO TREZE TILI0000025.29
7896294902518QUEIJO TREZE TILI0000030.85
7896294902525QUEIJO TREZE TILI0000017.85
7896294902532QUEIJO TREZE TILI0000040.97
7896294902549QUEIJO TREZE TILI0000021.05
7896294902556QUEIJO TREZE TILI0000026.65
7896294902563QUEIJO MINAS PADR0000029.48
7896294902570QUEIJO TREZE TILI0000026.65
7896294902587QUEIJO TREZE TILI0000030.85
7896294902594QUEIJO TREZE TILI0000026.28
7896294902617QUEIJO TREZE TILI0000111.69
7896294902631QUEIJO TREZE TILI0000023.75
7896294902839IOG.TIROL PED.FTA0000008.65
7896294902846IOG.TIROL PED.FTA0000008.65
7896294902853IOG.TIROL PED.FTA0000008.65
7896294902860IOG.TIROL PED.FTA0000008.65
7896304000012MACA T.MONICA VER0000013.99
7896313351037OVOS BCO GDE C/120000007.99
7896313351112OVOS PVC BCO C/300000015.99
7896313351174OVOS PVC VERMELHO0000010.99
7896353300033REQUEIJAO CATUPIR0000018.99
7896353300064REQUEIJAO CATUPIR0000028.99
7896353301115REQUEIJAO CATUPIR0000018.99
7896353301177REQUEIJAO CATUPIR0000018.99
7896353301184REQUEIJAO CATUPIR0000008.99
7896353301191REQUEIJAO CATUPIR0000008.99
7896353302068REQUEIJAO CATUPIR0000017.39
7896353302075REQUEIJAO CATUPIR0000018.59
7896353302181REQUEIJAO CATUPIR0000009.45
7896353302198REQUEIJAO CATUPIR0000009.45
7896353302204REQUEIJAO CATUPIR0000008.99
7896353302945CREAM CHEESE CATU0000019.90
7896353303324QUEIJO CATUPIRY P0000018.55
7896353303348MOLHO CATUPIRY DE0000014.65
7896353303393REQUEIJAO CATUPIR0000018.48
7896353303409REQUEIJAO CATUPIR0000017.55
7896419700494OVOS VERMELHO C/10000006.99
7896419724094OVOS BCO GDE C/120000007.99
7896419726029OVOS PVC VERM.C/30000015.99
7896419726036OVOS PVC BCO C/300000015.99
7896425000052RICOTA YEMA FRESC0000020.78
7896504300097BEB.LACTEA SANTA 0000005.99
7896504300165BEB.LACTEA SANTA 0000005.99
7896504300363TEMPER CHEESE SAN0000009.59
7896504300370FONDUE DE QUEIJO 0000039.90
7896504300516BEB.LACTEA SANTA 0000005.99
7896504301001QUEIJO PRATO SANT0000007.98
7896504301018QUEIJO SANTA CLAR0000007.98
7896504301025QUEIJO PRATO SANT0000007.98
7896504301742FONDUE DE 4 QUEIJ0000039.90
7896504301759FONDUE DE CHOCOLA0000039.90
7896504301810BEB.LACTEA SANTA 0000005.99
7896504305474QUEIJO SANTA MUSS0000009.59
7896504306105QUEIJO RALADO SAN0000004.99
7896504306457REQUEIJAO SANTA C0000006.89
7896504306501REQUEIJAO SANTA C0000014.99
7896504307744MOLHO SANTA CLARA0000015.49
7896504307768CREAM CHEESE SANT0000016.99
7896504308109FONDUE DE CHOCOLA0000039.90
7896504308772QUEIJO SANTA CLAR0000013.98
7896504308789QUEIJO PRATO SANT0000013.98
7896504310089QUEIJO SANTA CLAR0000039.90
7896504310201REQUEIJAO SANTA C0000014.99
7896534621551OVOS PVC BCO C/300000015.99
7896534621810OVOS PVC BCO C/300000015.99
7896534621834OVOS PVC BCO C/300000015.99
7896534621957OVOS PVC BCO C/200000010.99
7896534621988OVOS PVC BCO C/200000010.99
7896534622022OVOS PVC BCO C/200000010.99
7896569405638REQUEIJAO LIDER T0000005.99
7896569405652REQUEIJAO LIDER L0000005.99
7896569406697REQUEIJAO LIDER T0000011.99
7896569406703QUEIJO LIDER MUSS0000006.99
7896579902707FRUTAS CRISTALIZA0000008.99
7896579902745CASTANHA DE CAJU 0000017.98
7896579902752CASTANHA DO PARA 0000014.99
7896579902769DAMASCO FELIZ SEC0000015.98
7896579902776NOZES FELIZ S/CAS0000011.98
7896579902783UVA PASSA FELIZ B0000008.99
7896579902790UVA PASSA FELIZ P0000006.98
7896579950210AMEIXA FELIZ C/C 0000006.99
7896579950227AMEIXA FELIZ S/C 0000008.99
7896585298337AMEIXA 500G BDJA 0000004.99
7896585298351LICHIA BDJA      0000009.99
7896585298450UVA PRETA S/SEMEN0000007.99
7896625210275LEITE FERM.VIGOR 0000009.99
7896625210527IOG.VIGOR VIV 3 G0000013.69
7896625210541IOG.VIGOR VIV 3 G0000013.69
7896625210664QUEIJO VIGOR PARM0000028.89
7896625210688IOG.VIGOR VIV 3 G0000003.39
7896625210695IOG.VIGOR VIV 3 G0000003.39
7896625210718COALHADA VIGOR VI0000003.69
7896625210725IOG.VIGOR VIV NAT0000003.09
7896625210732IOG.VIGOR VIV NAT0000003.09
7896625210749IOG.VIGOR VIV NAT0000003.09
7896625210756IOG.VIGOR VIV NAT0000003.09
7896625210763IOG.VIGOR VIV NAT0000003.09
7896625210817IOG.VIGOR VIV MIX0000005.99
7896625210848IOG.VIGOR VIV MIX0000005.99
7896625210855IOG.VIGOR MIX MRG0000005.99
7896625210862IOG.VIGOR MIX COL0000005.99
7896625210992CREAM CHEESE VIGO0000017.99
7896625211005CREAM CHEESE VIGO0000010.69
7896625211012CREAM CHEESE VIGO0000017.99
7896625211029CREAM CHEESE VIGO0000010.69
7896625211043P-SUISSE VIGOR MR0000010.69
7896625211081IOG.VIGOR GREGO F0000002.69
7896625211098IOG.VIGOR GREGO M0000002.69
7896625211104IOG.VIGOR GREGO B0000002.69
7896625211111IOG.VIGOR GREGO F0000002.69
7896625211128IOG.VIGOR GREGO F0000002.69
7896625211142IOG.VIGOR GREGO T0000002.69
7896625211159IOG.VIGOR GREGO Z0000002.69
7896625211166IOG.VIGOR GREGO Z0000002.69
7896625211227REQUEIJAO DANUBIO0000010.99
7896625211234REQUEIJAO DANUBIO0000010.99
7896625211258BEB.LACTEA VIGOR 0000006.69
7896625211265BEB.LACTEA VIGOR 0000006.69
7896625211395REQUEIJAO VIGOR L0000014.69
7896625211401REQUEIJAO VIGOR C0000015.29
7896625211425QUEIJO FAIXA AZUL0000018.49
7896625211531CREAM CHEESE DANU0000022.90
7896625211685QUEIJO VIGOR CHED0000014.99
7896625211906QUEIJO FAIXA AZUL0000022.19
7896625211913QUEIJO FAIXA AZUL0000028.79
7896625211937QUEIJO FAIXA AZUL0000034.89
7896625211944IOG.VIGOR GREGO T0000002.69
7896625211951IOG.VIGOR GREGO B0000002.69
7896625211968IOG.VIGOR GREGO Z0000002.69
7896625212460IOG.VIGOR MRGO 1.0000012.69
7896625212477IOG.VIGOR VITAMIN0000012.69
7896625212484CREAM CHEESE DANU0000011.99
7896625212507IOG.VIGOR TANGERI0000003.15
7896625212514IOG.VIGOR PISTACH0000003.15
7896625212545QUEIJO PRATO VIGO0000020.27
7896625212644IOG.VIGOR GREGO P0000002.69
7896676000047OVOS DE CODORNA C0000007.99
7896676000115OVOS PVC BCO C/300000015.99
7896676000337OVOS MARUTANI GOU0000004.99
7896676000382OVOS MARUTANI OME0000007.99
7896676000399OVOS MARUTANI SEL0000007.99
7896676000542OVOS PVC VERM.C/30000015.99
7896676019117OVOS MARUTANI KIN0000004.99
7896676099911OVOS PVC BCO C/200000010.99
7896676099980OVOS PVC BCO C/300000015.99
7896691101002P-SUISSE CAROLINA0000006.79
7896691103112BEB.LACTEA CAROLI0000001.89
7896691103129BEB.LACTEA CAROLI0000001.89
7896691103174BEB.LACTEA CAROLI0000001.89
7896691103181BEB.LACTEA CAROLI0000001.89
7896691103198BEB.LACTEA CAROLI0000001.89
7896691103204BEB.LACTEA CAROLI0000006.49
7896691103211BEB.LACTEA CAROLI0000006.49
7896691103242BEB.LACTEA CAROLI0000006.49
7896691103631IOG.CAROLINA GREG0000002.35
7896691103648IOG.CAROLINA GREG0000002.37
7896691103655IOG.CAROLINA GREG0000002.35
7896691103662IOG.CAROLINA GREG0000002.35
7896691103853IOG.CAROLINA PED.0000008.99
7896691103860IOG.CAROLINA PED.0000008.99
7896691103877IOG.CAROLINA PED.0000008.99
7896691104232IOG.CAROLINA PED.0000008.99
7896691104331BEB.LACTEA CAROLI0000009.98
7896691104348BEB.LACTEA CAROLI0000009.98
7896691104355LEITE FERM.CAROLI0000012.45
7896691104492BEB.LACTEA CAROLI0000001.89
7896691104515BEB.LACTEA CAROLI0000001.89
7896691104669IOG.CAROLINA PED.0000008.99
7896691104683IOG.CAROLINA PED.0000008.99
7896691104690BEB.LACTEA CAROLI0000009.98
7896691104843SOB.CAROLINA CHOC0000016.19
7896691105017IOG.CAROLINA GREG0000008.99
7896691105024IOG.CAROLINA GREG0000008.99
7896691105031IOG.CAROLINA GREG0000008.99
7896691105130BEB.LACTEA CAROLI0000009.98
7896691105185IOG.CAROLINA GREG0000008.99
7896691105192IOG.CAROLINA GREG0000008.99
7896691105208IOG.CAROLINA PED.0000008.99
7896779900329LICHIA BDJA      0000009.99
7896807401996LARANJA PERA 3KG 0000011.79
7896807402436BROTO DE ALFAFA 10000009.99
7896807402443BROTO DE FEIJAO 50000008.99
7896807402627UVA ROSADA/NIAGAR0000004.99
7896807406533CEREJA IMP.250G  0000013.99
7896807426005CAJU BDJA        0000015.99
7896883000106QUEIJO CASA DO QU0000035.75
7896883000113QUEIJO PRATO CASA0000036.77
7896883000250QUEIJO CASA DO QU0000014.25
7896883000267QUEIJO PRATO CASA0000014.25
7896936700151PHYSALIS 100G    0000013.99
7896959360011QUEIJO PRATO CASA0000007.29
7896959360028QUEIJO CASA DO QU0000007.09
7896982100035OVOS PVC BCO C/200000010.99
7896982100059OVOS PVC BCO C/300000015.99
7896982100066OVOS PVC VERM.C/30000015.99
7896982100073OVOS PVC VERM.C/30000015.99
7896982100127OVOS PVC BCO C/300000015.99
7896982100158OVOS PVC VERMELHO0000010.99
7896982100301OVOS VERMELHO C/10000006.99
7896982103388OVOS PVC BCO C/200000010.99
7896982108444OVOS PVC VERM.C/30000015.99
7896982110010OVOS DE CODORNA C0000007.99
7896982110058OVOS BCO GDE C/120000007.99
7896982110065OVOS VERMELHO C/10000006.99
7896982140048OVOS BCO GDE C/120000007.99
7896982150054OVOS BCO GDE C/120000007.99
7897061600019BROTO DE ALFAFA 10000009.99
7897090487476AIPIM DESCASCADO 0000006.98
7897159000646ALHO HOSHINA DESC0000006.99
7897159000653ALHO HOSHINA DESC0000017.99
7897159000905ALHO HOSHINA IN N0000008.99
7897159000912ALHO HOSHINA IN N0000019.90
7897195931799SUCO LIFE INTEG.L0000007.49
7897195981350SUCO LIFE NECTAR 0000013.99
7897195981374SUCO LIFE INTEG.L0000012.49
7897195981602SUCO LIFE INTEG.L0000018.49
7897277702293IOG.ATILATTE NATU0000012.99
7897277702309IOG.ATILATTE NATU0000012.99
7897277702323IOG.ATILATTE NATU0000012.99
7897277702330IOG.ATILATTE NATU0000004.79
7897277702347IOG.ATILATTE NATU0000004.79
7897277702361IOG.ATILATTE NATU0000004.79
7897277703023IOG.ATILATTE NATU0000005.39
7897277703030IOG.ATILATTE DESN0000005.49
7897277703047COALHADA ATILATTE0000005.58
7897277703054COALHADA ATILATTE0000005.58
7897277703108IOG.ATILATTE DESN0000005.49
7897277703115IOG.ATILATTE NATU0000005.39
7897277704105QUEIJO ATILATTE M0000025.99
7897277705102IOG.ATILATTE SKYR0000010.99
7897277705119IOG.ATILATTE SKYR0000010.99
7897277705126IOG.ATILATTE SKYR0000010.99
7897277705157QUEIJO ATILATTE M0000029.99
7897277705232KEFIR ATILATTE IN0000019.90
7897277705270IOG.ATILATTE NATU0000005.39
7897277705300CREME DE RICOTA A0000011.59
7897277705317REQUEIJAO ATILATT0000011.99
7897376532623UVA ROSADA/NIAGAR0000004.99
7897410400116OVOS PVC BCO C/300000015.99
7897456400040LARANJA PERA 3KG 0000011.79
7897456400095LIMAO TAHITI 1KG 0000009.98
7897542830188OVOS MARUTANI KIN0000004.99
7897542830331OVOS ARES DO CAMP0000014.99
7897542830362OVOS MARUTANI KIN0000006.99
7897589710009CEBOLA 1KG PCT   0000004.99
7897589711112CEBOLA POTATO BEL0000011.99
7897589711228CEBOLA ROXA POTAT0000019.98
7897589711341CEBOLA POTATO BEL0000008.98
7897589711440CEBOLA POTATO BEL0000011.99
7897589720015BATATA POTATO BEL0000021.98
7897589722002BATATA POTATO BEL0000009.98
7897589722156BATATA POTATO BEL0000013.98
7897589730151BATATA PRIMEIRINH0000015.98
7897589743229BATATA ASTERIX PO0000019.99
7897589780057BATATA POTATO BEL0000008.98
7897589780095CEBOLA POTATO BEL0000009.98
7897589780101CEBOLA POTATO BEL0000009.98
7897974400201QUEIJO RALADO GRA0000002.35
7897974400249QUEIJO GRAN FORM.0000021.65
7897974400850QUEIJO RALADO RAR0000054.48
7897974401277QUEIJO GRAN FORM.0000045.90
7897974401444MACA RASIP 140G  0000001.28
7897974401451MACA RASIP 280G C0000002.68
7897974401468MACA RASIP 420G C0000004.15
7898013850056AMORA BDJA       0000004.99
7898013850339LICHIA BDJA      0000009.99
7898014852813LEITE FERM.UNIBAB0000006.25
7898016600016OVOS PVC VERM.C/30000015.99
7898016600023OVOS PVC VERM.C/30000015.99
7898019060053OVOS BCO GDE C/120000007.99
7898019060084OVOS PVC VERM.C/30000015.99
7898019060305OVOS PVC BCO C/300000015.99
7898019060312OVOS PVC BCO C/300000015.99
7898019060336OVOS PVC VERM.C/30000015.99
7898019060671OVOS ARES DO CAMP0000008.99
7898019060763OVOS ARES DO CAMP0000014.99
7898019060787OVOS ARES DO CAMP0000014.99
7898019060800OVOS ARES DO CAMP0000014.99
7898019060879OVOS MARUTANI KIN0000004.99
7898019060893OVOS ARES DO CAMP0000009.99
7898019061029OVOS PVC BCO C/200000010.99
7898019061203OVOS MARUTANI GOU0000004.99
7898019061210OVOS MARUTANI KIN0000004.99
7898019061227OVOS MARUTANI KIN0000006.99
7898019061425OVOS PVC VERMELHO0000010.99
7898019061449OVOS PVC BCO C/200000010.99
7898019061463OVOS PVC VERMELHO0000010.99
7898019062484OVOS MARUTANI SEL0000007.99
7898019062491OVOS MARUTANI OME0000007.99
7898019062507OVOS MARUTANI SEL0000007.99
7898019062514OVOS MARUTANI SEL0000007.99
7898019062521OVOS MARUTANI OME0000007.99
7898019065614OVOS ARES DO CAMP0000008.99
7898019065690OVOS PVC BCO C/200000010.99
7898019065829OVOS VERM.ORG.OME0000017.99
7898019065836OVOS VERM.ORG.SEL0000016.99
7898033356934BANANA PRATA 750G0000009.98
7898047500019LICHIA BDJA      0000009.99
7898051110044IOG.SALUBI COCO 50000010.99
7898051110051IOG.SALUBI MRGO 10000004.39
7898051110068IOG.SALUBI COCO 10000004.39
7898051110129IOG.SALUBI MRGO 10000018.99
7898051110280IOG.SALUBI MRGO 70000012.99
7898051110327IOG.SALUBI COCO 10000018.99
7898051110334IOG.SALUBI AMEIXA0000018.99
7898051110501IOG.SALUBI S/LAC.0000013.05
7898051110518IOG.SALUBI S/LAC.0000012.79
7898051110525IOG.SALUBI S/LAC.0000012.79
7898051110532IOG.SALUBI S/LAC.0000012.79
7898051111164IOG.SALUBI S/LAC.0000013.05
7898051111232IOG.SALUBI NATURA0000012.99
7898051111409IOG.SALUBI NATURA0000003.95
7898051111430IOG.SALUBI MRGO 50000010.99
7898051111553IOG.SALUBI S/LAC.0000013.05
7898051112147IOG.SALUBI FTAS V0000013.98
7898051112154IOG.SALUBI AMEIXA0000013.98
7898051112161IOG.SALUBI FTAS V0000019.65
7898059850942MIX CHEIRO VERDE 0000008.99
7898059851000SALADA ALFACE AME0000008.99
7898059851079GARDEN SALAD RDU 0000011.98
7898059851109SALADA ITALIANA R0000009.78
7898059851130SALADA TROPICAL R0000009.78
7898059851222ESPINAFRE RDU ORG0000010.98
7898059852021CENOURA RDU CORTA0000006.99
7898059852090YAKISSOBA RDU 4000000008.69
7898059858009SALADA ALFACE CRE0000010.98
7898059858016SALADA ALFACE LIS0000008.99
7898059858085ABOBRINHA RDU ORG0000011.98
7898059858108BATATA RDU ORG.500000010.98
7898059858115BERINJELA RDU ORG0000012.98
7898059858122BETERRABA RDU ORG0000012.98
7898059858139BROCOLIS RDU ORG.0000013.98
7898059858153CENOURA RDU ORG.50000012.98
7898059858191PIMENTAO VERDE RD0000012.59
7898059858238TOMATE RDU ORG.400000011.98
7898059858245TOMATE CEREJA RDU0000011.98
7898059858276MILHO VERDE RDU O0000011.98
7898059858283COGUMELO RDU IN N0000013.98
7898059858290PEPINO JAPONES RD0000014.99
7898059858559ABOBORA CORT.RDU 0000008.98
7898059859068PIMENTAO VERMELHO0000019.98
7898059859075PIMENTAO AMARELO 0000020.58
7898059859464TOMATE RED GRAPE 0000009.98
7898060740027KIWI GOLD 600G   0000008.58
7898060740072MACAS DIVERTIDAS 0000006.05
7898060740591UVA BRANCA S/SEME0000010.99
7898060740652CEREJA IMP.250G  0000013.99
7898060740744KIWI 500G BDJA   0000009.99
7898060740898AMEIXA 500G BDJA 0000004.99
7898060741048UVA NIAGARA 1.3KG0000018.15
7898060741567TOMATE SWEET GRAP0000004.99
7898060741666UVA PRETA S/SEMEN0000007.99
7898060741796CEREJA IMP.SILVES0000020.65
7898060741819KIWI SUNGOLD 440G0000039.99
7898060745497CEREJA IMP.250G  0000013.99
7898062741596UVA BRASIL 500G  0000007.88
7898072690433QUEIJO B.DOURADO 0000021.79
7898072690440QUEIJO B.DOURADO 0000021.79
7898072690464QUEIJO B.DOURADO 0000013.79
7898072690563QUEIJO B.DOURADO 0000021.79
7898080642134QUEIJO ITALAC MUS0000005.99
7898090430431UVA BENETAKA 500G0000012.99
7898090430509ACEROLA BDJA     0000012.99
7898090430523CAJU BDJA        0000015.99
7898090430554PESSEGO  BDJA    0000008.99
7898090430677PHYSALIS 100G    0000013.99
7898090430899TAMARINDO BDJA   0000017.98
7898090430905UVA ROSADA/NIAGAR0000004.99
7898090431025JABUTICABA 850G  0000029.90
7898090431056AMORA BDJA       0000004.99
7898090431131NESPERA BDJA     0000025.90
7898090431353JAMBO ROSA BDJA  0000029.90
7898090431438UVA VERMELHA S/SE0000007.99
7898090431469FIGO ROXO BDJA   0000019.99
7898091860022OVOS BCO GDE C/120000007.99
7898091860503OVOS PVC BCO C/300000015.99
7898092940013ALFACE HIDROPONIC0000005.79
7898092940020SALSINHA HIDROPON0000004.99
7898092940037CEBOLINHA HIDROPO0000004.99
7898092940044RUCULA HIDROPONIC0000004.99
7898092940051RADICHE HIDROPONI0000004.98
7898092940075PIMENTA DEDO DE M0000008.99
7898092940099CORACAO ALFACE AM0000012.99
7898092940105CHICORIA ITAL.STR0000009.99
7898092940501MIX SALSINHA/CEBO0000008.98
7898092944950SALADA ITALIANA S0000006.99
7898092945018BROCOLIS STRAPASS0000009.99
7898092945025ESPINAFRE STRAPAS0000009.99
7898092945063ALHO PORO STRAPAS0000011.99
7898092945094CENOURA STRAPASSO0000004.99
7898092945100SALADA COLORIDA S0000007.99
7898092945124TOMATE CEREJA STR0000007.97
7898092945162COENTRO HIDROPONI0000004.99
7898092945179REPOLHO VERDE STR0000004.99
7898092945193REPOLHO ROXO STRA0000006.99
7898092945223MIX P/SOPA STRAPA0000006.99
7898092945247YAKISSOBA STRAPAS0000013.98
7898092945254AGRIAO STRAPASSON0000009.99
7898092945308YAKISSOBA STRAPAS0000006.99
7898092945346COUVE FLOR STRAPA0000010.99
7898092945384PIMENTAO COLORIDO0000023.99
7898092945414REPOLHO VERDE STR0000007.99
7898092945421TOMATE STRAPASSON0000008.79
7898092945438TOMATE POMODORO S0000009.98
7898092945476BERINJELA 500G   0000005.98
7898092945483ACELGA STRAPASSON0000011.79
7898092945490REPOLHO ROXO STRA0000009.99
7898092945506COUVE MANTEIGA ST0000008.99
7898092945544COUVE FLOR FLORET0000007.99
7898092945605ABOBORA STRAPASSO0000011.89
7898092945643MANDIOQUINHA STRA0000005.69
7898092945827BROCOLIS FLORETES0000005.99
7898092945919SALADA ITALIANA S0000012.99
7898092945933MIX EUROPEU STRAP0000006.98
7898092946022SALADA MISTA STRA0000011.99
7898092946145SALADA MIX VERDE 0000013.99
7898092946169ESPINAFRE FOLHAS 0000005.99
7898092946251MIX ORIENTAL STRA0000005.99
7898092946350MIX ORIENTAL STRA0000005.99
7898092948484SALADA BABY LEAF 0000006.99
7898092948491SALADA BABY LEAF 0000007.99
7898092948606CORACAO ALFACE AM0000008.99
7898092948910COUVE FLOR FLORET0000007.99
7898092948927MAMAO PRE COZIDO 0000039.90
7898092949658MIX EUROPEU STRAP0000006.98
7898092949702BROCOLIS FLORETES0000005.99
7898097860057OVOS BCO GDE C/120000007.99
7898097861054OVOS BCO GDE C/120000007.99
7898097861672OVOS VERMELHO C/10000006.99
7898097861689OVOS PVC BCO C/200000010.99
7898097861696OVOS BCO GDE C/120000007.99
7898097861702OVOS PVC VERM.C/30000015.99
7898097861719OVOS PVC VERMELHO0000010.99
7898097861740OVOS PVC BCO C/300000015.99
7898097861757OVOS PVC BCO C/300000015.99
7898097861764OVOS PVC BCO C/200000010.99
7898097861795OVOS PVC VERM.C/30000015.99
7898097861801OVOS PVC VERMELHO0000010.99
7898103050014BATATA PRIMEIRINH0000007.99
7898112830010BROTO DE FEIJAO 50000008.99
7898112830317BROTO DE ALFAFA 10000009.99
7898130990055REQUEIJAO BOM DES0000011.99
7898130990246QUEIJO BOM DESTIN0000028.75
7898130990505QUEIJO BOM DESTIN0000016.99
7898130990529QUEIJO BOM DESTIN0000014.99
7898130990673CREME DE RICOTA B0000009.99
7898130991021QUEIJO BOM DESTIN0000039.25
7898130991335QUEIJO BOM DESTIN0000014.99
7898130991557QUEIJO BOMPRATO B0000019.29
7898130991663QUEIJO BOM DESTIN0000029.78
7898130991670QUEIJO BOM DESTIN0000024.17
7898130991700QUEIJO BOM DESTIN0000028.38
7898131940554OVOS PVC BCO C/200000010.99
7898131940561OVOS PVC BCO C/200000010.99
7898131940585OVOS PVC VERMELHO0000010.99
7898131940615OVOS PVC BCO C/300000015.99
7898131940622OVOS PVC BCO C/300000015.99
7898131940646OVOS PVC VERM.C/30000015.99
7898131940653OVOS PVC VERM.C/30000015.99
7898131940813OVOS BCO GDE C/120000007.99
7898138300016OVOS BCO GDE C/120000007.99
7898138300023OVOS BCO GDE C/120000007.99
7898138300047OVOS PVC BCO C/300000015.99
7898138300085OVOS VERMELHO C/10000006.99
7898138300122OVOS PVC VERM.C/30000015.99
7898138300146OVOS PVC BCO C/200000010.99
7898138300184OVOS PVC BCO C/200000010.99
7898147096603LARANJA PERA 3KG 0000011.79
7898150730013AIPIM CITRUS SABO0000008.99
7898150730020AIPIM CITRUS SABO0000005.98
7898150730037LARANJA LIMA CITR0000008.99
7898150730075ALHO PORO CITRUS 0000005.98
7898150730082ALHO PORO CITRUS 0000006.98
7898166880016OVOS PVC VERM.C/30000015.99
7898166880139OVOS PVC BCO C/300000015.99
7898166880146OVOS PVC VERMELHO0000010.99
7898166880184OVOS PVC BCO C/200000010.99
7898166881235OVOS VERMELHO C/10000006.99
7898183470016COGUMELO PARIS 200000007.99
7898186220137COENTRO PERCICOTI0000004.99
7898186220151ESPINAFRE PERCICO0000005.99
7898186220175RUCULA PERCICOTI 0000004.98
7898187730123OVOS VERMELHO C/10000006.99
7898187730307OVOS VERMELHO C/10000006.99
7898187730871OVOS PVC VERM.C/30000015.99
7898190400402CHEIRO MIX PICADO0000012.99
7898190400549ALFACE AMER.DELIC0000017.05
7898190400556ALFACE CRESPA DEL0000017.18
7898190400563ALFACE LISA DELIC0000016.85
7898190400570ALFACE MIX DELICI0000021.45
7898190400587BETERRABA RALADA 0000005.97
7898190400617CEBOLINHA PICADA 0000011.45
7898190400624CENOURA RALADA DE0000006.99
7898190400631COUVE CHINESA DEL0000016.85
7898190400662COUVE FOLHA PICAD0000016.99
7898190400679ESPINAFRE DELICIA0000015.95
7898190400716SALADA MISTA DELI0000024.88
7898190400723SALSINHA PICADA D0000011.99
7898190400778YAKISSOBA DELICIA0000039.45
7898190400792CEBOLA BRANCA PIC0000018.25
7898190400853SOPAO DELICIA HIG0000039.45
7898190400877AGRIAO DELICIA HI0000014.35
7898190400976RUCULA DELICIA HI0000016.19
7898190401041SALADA TRICOLORID0000026.19
7898190401102LEGUMES PICADO DE0000035.99
7898190401171VEGETAIS P/REFOGA0000024.90
7898190401188PALMITO DELICIA P0000032.75
7898190401195PALMITO DELICIA P0000041.99
7898190401225BROCOLIS&PUPUNHA 0000028.18
7898190401249ESPAGUETE DE PALM0000024.90
7898190401256PALMITO&CENOURA R0000018.65
7898192550037ALFACE HIDROPONIC0000003.79
7898194160036QUEIJO LAC LELO C0000012.59
7898194160050QUEIJO LAC LELO C0000016.79
7898194160760QUEIJO LAC LELO Q0000014.49
7898194160777QUEIJO LAC LELO Q0000014.59
7898194161644CREME DE RICOTA L0000007.99
7898194163556CREME DE RICOTA L0000007.99
7898194163969QUEIJO LAC LELO Q0000010.85
7898194163983QUEIJO LAC LELO Q0000010.39
7898194600020OVOS BCO GDE C/120000007.99
7898194600051OVOS VERMELHO C/10000006.99
7898194600075OVOS MARUTANI GOU0000004.99
7898194600082OVOS PVC BCO C/200000010.99
7898194600099OVOS MARUTANI KIN0000004.99
7898194600174OVOS MARUTANI SEL0000007.99
7898194600198OVOS MARUTANI KIN0000006.99
7898194600624OVOS PVC BCO C/200000010.99
7898194600648OVOS PVC BCO C/300000015.99
7898194600655OVOS PVC BCO C/300000015.99
7898194600778OVOS PVC VERM.C/30000015.99
7898194601263OVOS PVC VERMELHO0000010.99
7898194601744OVOS MARUTANI OME0000007.99
7898194602000OVOS PVC BCO C/200000010.99
7898194602024OVOS PVC VERMELHO0000010.99
7898194609993OVOS DE CODORNA C0000007.99
7898205920215QUEIJO VERDE CAMP0000014.49
7898205920239QUEIJO LACFREE CO0000014.99
7898205923858REQUEIJAO LACFREE0000011.99
7898205924206IOG.LACFREE 14G W0000008.99
7898205924220IOG.LACFREE 14G W0000008.99
7898205924312IOG.LACFREE 14G W0000008.99
7898205924374QUEIJO VERDE CAMP0000026.85
7898205924435IOG.LACFREE 14G W0000008.99
7898205924671IOG.LACFREE 21G W0000012.59
7898205924725IOG.LACFREE 28G W0000016.49
7898205924862IOG.VERDE CAMPO K0000004.55
7898205924879IOG.VERDE CAMPO K0000004.55
7898205924909QUEIJO LACFREE MU0000011.99
7898205925128IOG.LACFREE 21G W0000012.59
7898205925197REQUEIJAO LACFREE0000023.65
7898205925203IOG.LACFREE 21G W0000012.59
7898205925210IOG.LACFREE 28G W0000016.49
7898205925357IOG.LACFREE 28G W0000016.49
7898205925388IOG.VERDE CAMPO 10000008.89
7898205925395IOG.VERDE CAMPO 10000008.99
7898205925401IOG.VERDE CAMPO 10000008.99
7898205925449IOG.VERDE CAMPO N0000003.99
7898205925463IOG.VERDE CAMPO 10000005.99
7898205925470IOG.VERDE CAMPO 10000005.99
7898205925555IOG.VERDE CAMPO 10000008.99
7898205925562IOG.VERDE CAMPO 10000008.99
7898205925579IOG.LACFREE NATUR0000003.99
7898205925586IOG.LACFREE NATUR0000010.99
7898205925593IOG.LACFREE NATUR0000010.49
7898205925609IOG.LACFREE NATUR0000003.99
7898205925616KEFIR LACFREE TRA0000013.85
7898205925623KEFIR LACFREE MRG0000013.85
7898205925630SOB.VERDE CAMPO F0000011.49
7898205925647SOB.VERDE CAMPO B0000011.49
7898205925654COALHADA SECA VER0000013.90
7898207000274COGUMELO SHITAKE 0000017.98
7898207022009COGUMELO PARIS 300000014.99
7898207022016TOMATE COCKTAIL 30000005.99
7898207030370LICHIA BDJA      0000009.99
7898207060018MORANGO BDJA     0000007.99
7898207062098MELAO ANDINO BDJA0000008.99
7898207062111MACADAMIA BDJA   0000029.99
7898207062142UVA PRETA S/SEMEN0000007.99
7898207062357UVA PRETA S/SEMEN0000007.99
7898207062371UVA BRANCA S/SEME0000010.99
7898207062586KIWI 500G BDJA   0000009.99
7898207062623PHYSALIS 100G    0000013.99
7898242140010BATATA PRIMEIRINH0000007.99
7898248130077OVOS DE CODORNA C0000007.99
7898252260012OVOS VERMELHO C/10000006.99
7898252260029OVOS BCO GDE C/120000007.99
7898252260050OVOS PVC BCO C/300000015.99
7898252260098OVOS PVC BCO C/200000010.99
7898252260173OVOS PVC BCO C/300000015.99
7898252260227OVOS PVC BCO C/200000010.99
7898252260241OVOS THE CREAM C/0000013.99
7898254110018LARANJA PERA 3KG 0000011.79
7898258812352QUEIJO DEMARCHI C0000021.59
7898270370106BATATA PRIMEIRINH0000007.99
7898274210118UVA ITALIA 500G  0000010.99
7898274210125UVA RUBI 500G    0000007.29
7898274210132UVA VERMELHA C/SE0000006.99
7898274210149UVA BRASIL 500G  0000007.88
7898274210156UVA ROSADA/NIAGAR0000004.99
7898274210699UVA VERMELHA S/SE0000007.99
7898274210743UVA BRANCA S/SEME0000010.99
7898274210989UVA ITALIA 500G  0000010.99
7898274210996UVA RUBI 500G    0000007.29
7898274211009UVA VERMELHA C/SE0000006.99
7898274211016UVA BRASIL 500G  0000007.88
7898274211023UVA ROSADA/NIAGAR0000004.99
7898274211030UVA VERMELHA S/SE0000007.99
7898274211047UVA BRANCA S/SEME0000010.99
7898342580020TOMATE GRAPE 500G0000006.99
7898342580044TOMATE POMODORO 40000006.99
7898342580051TOMATE FANNY BERT0000008.99
7898342580068VAGEM BERTOLIN S/0000009.98
7898342580129VAGEM MACARRAO 300000006.98
7898342580211CORACAO ALFACE AM0000011.99
7898342580228BROCOLIS JAPONES 0000009.49
7898342580297PIMENTAO MISTO BE0000015.98
7898342580440TOMATE SWEET GRAP0000004.99
7898342580563RUCULA HIDROPONIC0000003.99
7898342580570MIX SALADA PREMIU0000004.99
7898342580655TOMATE SWEET HEAV0000007.99
7898342580839TOMATE SWEET ITAL0000012.99
7898342580860TOMATE GRAPE 150G0000003.59
7898342580877CORACAO ALFACE AM0000005.98
7898352380016BATATA PRIMEIRINH0000007.99
7898353790104BROCOLIS 250G    0000003.98
7898353790159TOMATE HOLANDES 50000008.98
7898353790234ABOBORA PRE COZID0000034.98
7898366000139ABACAXI GOLD UN  0000015.99
7898445431915ALHO CONDOR 150G 0000006.99
7898445432004ALHO CONDOR 150G 0000006.99
7898445432011MILHO VERDE CONDO0000004.89
7898445432097ALHO CONDOR 150G 0000006.99
7898445432226ALHO CONDOR 150G 0000006.99
7898507968113BANANA PRATA 750G0000009.98
7898527061115SUCO SUPER SUCO N0000004.29
7898537390045MIX SOPAO RDU LEG0000011.98
7898537390953COUVE FLOR FLORET0000008.98
7898537390960BLOCOLIS FLORETE 0000008.98
7898537390977MILHO VERDE SWEET0000012.98
7898537391196ALHO PORO RDU FAT0000012.98
7898537392018MIX VEGETAIS RDU 0000009.98
7898537392025MIX JARDINEIRA RD0000008.98
7898537392032MIX SAUTE RDU SAL0000009.98
7898537392049CHUCHU RDU CUBOS 0000007.98
7898537392056ABOBRIMHA TALIANA0000008.98
7898537392124BETERRABA CUBOS R0000008.98
7898537392131CENOURA CUBOS RDU0000006.98
7898552230029COUVE FLOR UN    0000004.99
7898552230036BROCOLIS UN      0000005.99
7898552742430TAMARA C/CAROCO 20000004.99
7898553091193UVA VERMELHA S/SE0000007.99
7898553442933SUCO NATURAL ONE 0000012.99
7898553442940SUCO NATURAL ONE 0000015.99
7898553443886SUCO NATURAL ONE 0000014.99
7898553445613SUCO NATURAL ONE 0000015.99
7898558732053MACADAMIA BDJA   0000029.99
7898563250801DECOPOM BDJA     0000019.99
7898574781592UVA PRETA S/SEMEN0000007.99
7898596780214TOMATE GRAPE 300G0000004.75
7898596780801TOMATE GRAPE 500G0000006.99
7898598189565UVA PRETA S/SEMEN0000007.99
7898598750062CREME DE QUEIJO Q0000007.59
7898598750079CREME DE QUEIJO Q0000007.59
7898621151538OVOS THE CREAM C/0000013.99
7898622077325SUCO SUPER SUCO N0000004.49
7898624450133CEBOLA 1KG PCT   0000004.99
7898632290011UVA PRETA S/SEMEN0000007.99
7898632290080UVA BRANCA S/SEME0000010.99
7898632290097UVA VERMELHA S/SE0000007.99
7898645370014ALFACE AMER.ORG.20000008.98
7898645370021BROCOLIS ORG.300G0000008.99
7898645370038COUVE FLOR ORG.300000009.99
7898645370045ESPINAFRE ORG.3000000009.79
7898645370069RADICHE ROXO ORG.0000010.15
7898645370076REPOLHO VERDE ORG0000009.98
7898645370083REPOLHO ROXO ORG.0000009.99
7898645370090ACELGA ORG.300G  0000008.98
7898645370137MINI ALFACE ROMAN0000008.89
7898645370274COUVE MANTEIGA OR0000007.99
7898645370335TOMATE ORG.500G  0000016.98
7898645370410ABOBRINHA ORG.5000000007.15
7898645370496CENOURA ORG.500G 0000010.99
7898645370571ALFACE ROMANA MIN0000009.78
7898646570123PIMENTAO VERMELHO0000007.98
7898646570130PIMENTAO AMARELO 0000007.98
7898646570147PIMENTAO LARANJA 0000007.98
7898646570222MILHO VERDE SWEET0000012.98
7898646570284MINI PIMENTAO COL0000007.98
7898646570338ALHO ROXO TREBESC0000021.35
7898646570802TOMATINHOS CONFEI0000008.98
7898657700137TOMATE GRAPE 500G0000006.99
7898657700144PIMENTA BIQUINHO 0000005.97
7898657700298AMEND.MAIS VERDES0000009.99
7898657700595MILHO DOCE MAIS V0000008.99
7898657701202COGUMELO MAIS VER0000013.99
7898657701219SALSAO MAIS VERDE0000005.99
7898658920152BETERRABA TREBESC0000008.08
7898666630944TAMARA C/CAROCO 20000004.99
7898675840006OVOS VERMELHO C/10000006.99
7898675840082OVOS VERMELHO C/10000006.99
7898675840099OVOS PVC VERM.C/30000015.99
7898682030209CASTANHA DE CAJU 0000024.99
7898682030223CASTANHA DE CAJU 0000024.99
7898682030711CASTANHA DE CAJU 0000027.99
7898682031480CASTANHA DE CAJU 0000019.99
7898687670707JABUTICABA 850G  0000029.90
7898695730004ABACAXI CAVALLI C0000008.99
7898695730042ABOBORA CABOTIA C0000007.99
7898695730073ALFACE AMER.CAVAL0000009.99
7898695730080ALFACE CRESPA CAV0000006.99
7898695730110MIX BETERRABA/CEN0000006.99
7898695730127CEBOLA CAVALLI CU0000007.99
7898695730134CEBOLINHA PICADA 0000004.99
7898695730158CENOURA RALADA CA0000005.99
7898695730165MIX CHEIRO VERDE 0000005.99
7898695730172ABOBORA CAVALLI C0000006.99
7898695730189COUVE CAVALLI EXT0000006.99
7898695730196COUVE CAVALLI FAT0000007.99
7898695730202MIX COUVE FLOR/BR0000008.99
7898695730226KIT SOPA CAVALLI 0000011.99
7898695730233MAMAO CAVALLI CUB0000008.99
7898695730240MANGA CAVALLI CUB0000008.98
7898695730257MELANCIA CUBOS CA0000007.99
7898695730264MELAO CAVALLI CUB0000008.99
7898695730271MIX DE FOLHAS CAV0000011.99
7898695730288MIX DE FOLHAS CAV0000007.49
7898695730295MIX FRUTAS CAVALL0000010.90
7898695730301MIX PRATICO CAVAL0000008.99
7898695730318REPOLHO VERDE CAV0000004.99
7898695730325RUCULA CAVALLI 100000008.98
7898695730332SALADA DE FRUTAS 0000010.90
7898695730349SALADA DE FRUTAS 0000012.99
7898695730356SALADA PRATICA CA0000008.99
7898695730363SALADA RAPIDA CAV0000006.99
7898695730370SALSINHA PICADA C0000004.99
7898695730387MIX VAGEM/CENOURA0000006.99
7898695730394SOPAO CAVALLI 2000000006.99
7898695730400VINAGRETE CAVALLI0000012.99
7898695730417YAKISSOBA CAVALLI0000011.99
7898696241196TAMARA C/CAROCO 20000004.99
7898710470007UVA BRANCA S/SEME0000010.99
7898710470021UVA PRETA S/SEMEN0000007.99
7898710470045UVA VERMELHA S/SE0000007.99
7898710470069UVA BRANCA S/SEME0000010.99
7898710470083UVA PRETA S/SEMEN0000007.99
7898710470113UVA BRANCA S/SEME0000010.99
7898710470137UVA PRETA S/SEMEN0000007.99
7898710470151UVA VERMELHA S/SE0000007.99
7898710470403UVA PRETA S/SEMEN0000007.99
7898710470427UVA MISTA 500G   0000012.98
7898710471004UVA BRANCA S/SEME0000010.99
7898710471011UVA PRETA S/SEMEN0000007.99
7898713240065MORANGO BDJA     0000007.99
7898713240089UVA ROSADA/NIAGAR0000004.99
7898713240393CEREJA BDJA      0000008.99
7898713240454LICHIA BDJA      0000009.99
7898713240461CAJU BDJA        0000015.99
7898726790199PERA ERCOLINI SAL0000009.99
7898726790205AMEIXA SALUTE 3000000010.99
7898726790229MACA ITALIANA SAL0000014.99
7898726790236MACA ITALIANA SAL0000014.99
7898726790250KIWI SALUTE ITALI0000013.99
7898726790274MACA ITALIANA SAL0000024.99
7898726790281MACA ITALIANA SAL0000014.99
7898726790304MACA ITALIANA SAL0000022.90
7898726790311MACA ITALIANA SAL0000022.90
7898726790328MACA ITALIANA SAL0000022.90
7898726790380KIWI SALUTE ORG.20000013.99
7898727790310QUEIJO D'OR TIPO 0000019.09
7898727790419QUEIJO D'OR BOCCO0000020.75
7898727790426QUEIJO D'OR PERLI0000020.75
7898727790600QUEIJO D'OR BURRA0000029.65
7898727790617QUEIJO D'OR BURRA0000029.65
7898727790761QUEIJO D'OR MASCA0000021.68
7898727790778QUEIJO D'OR TIPO 0000020.85
7898727790792COALHADA D'OR SEC0000020.87
7898727791034QUEIJO D'OR  MINA0000033.25
7898739000018LARANJA PERA 850G0000004.39
7898755200027SOB.NESTLE CHANDE0000004.99
7898755200041IOG.NESTLE CHAMBI0000003.49
7898755200065SOB.NESTLE CHANDE0000003.29
7898755200102IOG.NESTLE GREGO 0000011.99
7898755200119IOG.NESTLE GREGO 0000011.99
7898755200126SOB.NESTLE CHANDE0000005.15
7898755200188SOB.NESTLE CHANDE0000005.49
7898755200195IOG.NESTLE NATURA0000006.87
7898755200218IOG.MOLICO S/LAC.0000003.49
7898755200225IOG.MOLICO S/LAC.0000007.59
7898755200232P-SUISSE NESTLE C0000009.49
7898755200331IOG.NESTLE S/LAC.0000014.99
7898755200348IOG.NESTLE S/LAC.0000003.58
7898755200362IOG.NESTLE S/LAC.0000014.99
7898755200379IOG.NESTLE S/LAC.0000003.58
7898764520000ACAFRAO AROMA E S0000005.97
7898764520017ALECRIM AROMA E S0000005.97
7898764520024ALFAVACA AROMA E 0000005.97
7898764520031CHEIRO VERDE AROM0000005.97
7898764520048COENTRO AROMA E S0000005.97
7898764520055ERVA DOCE BULBO A0000006.49
7898764520079GENGIBRE AROMA E 0000005.99
7898764520086HORTELA AROMA E S0000005.97
7898764520093LOURO AROMA E SAB0000005.97
7898764520116MANJERICAO AROMA 0000005.97
7898764520123MANJERONA AROMA E0000005.97
7898764520130ORA-PRO-NOBIS ARO0000005.97
7898764520147OREGANO AROMA E S0000005.97
7898764520161SALSA CRESPA AROM0000005.97
7898764520178SALSAO AROMA E SA0000005.97
7898764520185SALSINHA AROMA E 0000005.97
7898764520192SALVIA AROMA E SA0000005.97
7898764520208TOMILHO AROMA E S0000005.97
7898764520215TOMILHO LIMAO ARO0000005.97
7898764520253PIMENTA DEDO DE M0000005.97
7898764520260PIMENTA MALAGUETA0000005.97
7898764520277PIMENTA HABANERO 0000005.97
7898764520284PIMENTA JALAPENO 0000005.97
7898764520291PIMENTA CAMBUCI A0000005.97
7898764520307PIMENTA BIQUINHO 0000005.97
7898764520314SALSAO AROMA E SA0000008.98
7898773140107QUEIJO RALADO EL 0000004.37
7898773140268QUEIJO EL MAESTRO0000009.35
7898901614159MACA DISNEY 1KG P0000013.99
7898902568048FONDUE DE QUEIJO 0000034.88
7898902568079QUEIJO D'OR BLEU 0000026.09
7898902568529QUEIJO D'OR TIPO 0000019.09
7898907194013FIGO VERDE PRE CO0000039.90
7898907194020LARANJA PRE COZ.80000039.90
7898907194037PESSEGO PRE COZ.80000039.99
7898907194051MAMAO PRE COZIDO 0000039.90
7898907194082MAMAO RALADO PRE 0000039.90
7898907194129CIDRA RALADA PRE 0000034.98
7898907194136CIDRA PEDACO PRE 0000029.99
7898908023015FIGO VERDE PRE CO0000039.90
7898908107623LICHIA BDJA      0000009.99
7898910005009COGUMELO PARIS IL0000007.99
7898914460323COGUMELO PARIS IL0000007.99
7898918783022MORANGO BDJA     0000007.99
7898920918993QUEIJO CREMONT 400000032.88
7898921311168BROCOLIS UN      0000005.99
7898923868042UVA BRANCA S/SEME0000010.99
7898923868974UVA BRANCA S/SEME0000010.99
7898923868981UVA PRETA S/SEMEN0000007.99
7898923868998UVA VERMELHA S/SE0000007.99
7898924049051QUEIJO RALADO REL0000006.49
7898924049488QUEIJO RALADO REL0000006.49
7898924049501QUEIJO RALADO VAL0000005.49
7898926529049OVOS BCO GDE C/120000007.99
7898926529087OVOS PVC BCO C/200000010.99
7898926529094OVOS PVC BCO C/300000015.99
7898926529117OVOS VERMELHO C/10000006.99
7898926529131OVOS PVC BCO C/300000015.99
7898926529216OVOS PVC BCO C/200000010.99
7898926529469OVOS PVC VERMELHO0000010.99
7898926529476OVOS PVC VERM.C/30000015.99
7898927917203UVA BENETAKA 500G0000012.99
7898928520020TOMATE ITA.KRUPA 0000006.95
7898928520037TOMATE SWEET HEAV0000007.99
7898928524011MORANGO BDJA     0000007.99
7898928524028TOMATE ROMANITA 40000019.98
7898928524042TOMATE HOLANDES K0000014.98
7898928524127PIMENTAO MISTO 350000009.98
7898928524189TOMATE SWEET HEAV0000006.99
7898928524226PIMENTAO MISTO 350000009.98
7898928524233PIMENTAO AMARELO 0000007.98
7898928524301PIMENTAO VERMELHO0000009.99
7898928524356BERINJELA 500G   0000005.98
7898931721025COGUMELO PARIS 300000014.99
7898931721056BROTO DE FEIJAO 50000008.99
7898931721100COGUMELO PARIS 300000014.99
7898931936016MILHO VERDE CONDO0000004.89
7898931936078MILHO VERDE 500G 0000004.97
7898933327218UVA PRETA S/SEMEN0000007.99
7898933327249UVA VERMELHA S/SE0000007.99
7898933328055UVA BRANCA S/SEME0000010.99
7898933328116UVA BRANCA S/SEME0000010.99
7898934634674LARANJA LIMA 1,5K0000012.99
7898934634827TANGERINA 1,5KG P0000011.98
7898934634896LIMAO TAHITI 1KG 0000009.98
7898934645663QUEIJO B.DOURADO 0000021.79
7898934645847QUEIJO B.DOURADO 0000022.79
7898935886010MIRTILO BDJA     0000007.99
7898936057303OVOS BCO GDE C/120000007.99
7898936057327OVOS PVC BCO C/300000015.99
7898936057334OVOS PVC BCO C/300000015.99
7898936057372OVOS PVC BCO C/200000010.99
7898936057457OVOS PVC BCO C/200000010.99
7898936059079MANDIOCA TREBESCH0000007.98
7898937696013MORANGO BDJA     0000007.99
7898938301077UVA PRETA S/SEMEN0000007.99
7898938310017UVA BRANCA S/SEME0000010.99
7898938310031UVA BRANCA S/SEME0000010.99
7898938310109UVA PRETA S/SEMEN0000007.99
7898938321006UVA VERMELHA S/SE0000007.99
7898938321204UVA GREEN DREAMS 0000011.98
7898938321235UVA BRANCA S/SEME0000010.99
7898938321273UVA INFINITY TURM0000011.98
7898938321358UVA VITORIA TURMA0000010.98
7898938321389UVA MISTA 500G   0000012.98
7898938321402UVA VERMELHA S/SE0000011.98
7898938321464UVA MISTA 500G   0000012.98
7898938321471UVA VERMELHA S/SE0000007.99
7898938321600UVA PRETA S/SEMEN0000007.99
7898938321617UVA PRETA S/SEMEN0000007.99
7898938321624UVA BRANCA S/SEME0000013.99
7898938321693UVA PRETA S/SEMEN0000007.99
7898938321822UVA MISTA 500G   0000012.98
7898938321884UVA MISTA 500G   0000012.98
7898938321921UVA PRETA S/SEMEN0000007.99
7898938380461UVA BRANCA S/SEME0000010.99
7898938381079UVA PRETA S/SEMEN0000007.99
7898938971706CEREJA BDJA      0000008.99
7898938976091UVA PRETA S/SEMEN0000007.99
7898938976268UVA PRETA S/SEMEN0000007.99
7898939332025CASTANHA DE CAJU 0000029.99
7898939332032CASTANHA DE CAJU/0000034.99
7898939332087CASTANHA DE CAJU 0000024.99
7898939332346CASTANHA DE CAJU 0000018.99
7898939332742CASTANHA DE CAJU 0000029.98
7898939332766CASTANHA DO PARA 0000034.90
7898940855209LARANJA PERA 850G0000004.39
7898940855216MANGA PALMER CITR0000011.55
7898940855308AIPIM CITROESTE D0000009.98
7898940855407JABUTICABA 850G  0000029.90
7898940855445LIMAO TAHITI CITR0000008.38
7898940855551LARANJA PERA 3KG 0000011.79
7898942486012ACELGA ORG.300G  0000008.98
7898942486074COUVE FLOR ORG.300000009.99
7898942486098COUVE MANTEIGA OR0000007.99
7898942486357COGUMELO PARIS 200000007.99
7898942930065TOMATE COMO ANTIG0000012.89
7898942930355TOMATE CEREJA RAM0000006.98
7898942930362TOMATE CEREJA AMA0000008.98
7898942930430TOMATE TURMA DA M0000005.95
7898942930447MILHO VERDE SWEET0000012.98
7898942930461TOMATE GRAPE 180G0000002.99
7898942930492TOMATE SWEET GRAP0000017.98
7898942930706TOMATE GRAPE 500G0000006.99
7898942930768DUO TOMATES 250G 0000008.98
7898942930812PIMENTAO BLOCK BA0000007.98
7898943146113UVA VERMELHA S/SE0000007.99
7898946344035MAMAO PAPAYA PREM0000014.98
7898946537024UVA BRANCA S/SEME0000010.99
7898946538090UVA VERMELHA S/SE0000007.99
7898946538250UVA BRANCA S/SEME0000010.99
7898946538403UVA VERMELHA S/SE0000007.99
7898947991016ALFACE CRESPA HID0000005.89
7898947991023MINI ALFACE LISA 0000005.98
7898947991030MINI ALFACE LISA 0000005.98
7898947991047MINI ALFACE MIMOS0000005.98
7898947991054RUCULA HIDROPONIC0000005.79
7898947991061AGRIAO HIDROPONIC0000005.98
7898947991085CEBOLINHA DEVILE 0000004.98
7898947991184TOMATE GRAPE 180G0000002.99
7898947991191MINI ALFACE MIMOS0000005.98
7898947991207ALFACE BABY DEVIL0000010.98
7898947991245MINI ALFACE FRISE0000005.98
7898947991252MINI ALFACE FRISE0000005.98
7898947991269ALECRIM DEVILE 150000004.98
7898947991283COENTRO HIDROPONI0000004.98
7898947991290ESPINAFRE HIDROPO0000004.95
7898947991382TOMATE GRAPE DEVI0000013.98
7898947991399ALHO PORO DEVILE 0000007.98
7898947991405HORTELA DEVILE 150000003.67
7898947991412TOMILHO DEVILE 150000005.99
7898947991429OREGANO DEVILE 150000004.98
7898947991436MANJERONA DEVILE 0000004.98
7898947991443ALFAVACA DEVILE 10000004.98
7898947991450ERVA CIDREIRA DEV0000004.98
7898947991467MANJERICAO VERDE 0000004.98
7898947991474SALVIA DEVILE 15G0000004.98
7898947991528MANJERICAO ROXO D0000004.98
7898947991573COUVE MANTEIGA DE0000004.98
7898947991603ALHO PORO DEVILE 0000005.98
7898947991689TOMATE GRAPE DEVI0000003.99
7898947991719MINI REPOLHO DEVI0000006.49
7898947991740ALFACE AMER.DEVIL0000004.98
7898947991788COENTRO DEVILE 150000004.98
7898947991795BATATA SALSA DEVI0000005.98
7898947991863BROCOLIS CHINES D0000005.98
7898947992051TOMATE GRAPE DEVI0000005.99
7898947992778AIPIM DEVILE 800G0000010.98
7898947993409SALSA PICADA DEVI0000005.97
7898947993515MIX BROCOLIS/COUV0000006.99
7898947993577MILHO VERDE DEVIL0000005.98
7898947993928SALADA DEVILE 80G0000004.98
7898947994079TOMATE GRAPE DEVI0000008.98
7898947994086MILHO VERDE DEVIL0000007.98
7898947994093BATATA SALSA DEVI0000008.98
7898947994116BATATA DOCE DEVIL0000008.98
7898947994123BATATA INGLESA DE0000008.98
7898947994130YAKISSOBA DEVILE 0000008.98
7898947994147ABOBORA KABOTIA D0000008.98
7898947994154MIX LEGUMES DEVIL0000008.98
7898947994253CEBOLINHA PICADA 0000006.98
7898947994260CEBOLA BRANCA DEV0000006.98
7898947994284SALADA AMERICANA 0000007.98
7898947994291SALADA ITALIANA D0000008.98
7898947994307SALADA PRIMAVERA 0000008.98
7898947994314SALADA GREGA DEVI0000008.98
7898949126010MORANGO BDJA     0000007.99
7898949126195UVA ROSADA/NIAGAR0000004.99
7898949126317AMEIXA 500G BDJA 0000004.99
7898949126324KIWI 500G BDJA   0000009.99
7898949126355MACA 850G PCT    0000006.99
7898949126386PESSEGO  BDJA    0000008.99
7898949126409CEREJA IMP.250G  0000013.99
7898949126416MACA 850G PCT    0000006.99
7898949126430TANGERINA S/SEMEN0000007.99
7898949447016ALFACE CRESPA HID0000003.99
7898949447023AGRIAO HIDROPONIC0000003.99
7898949447054CEBOLINHA HIDROPO0000003.99
7898949447061SALSA HIDROPONICA0000003.98
7898949447085RADICHE HIDROPONI0000004.99
7898949447092ESPINAFRE HIDROPO0000004.99
7898949447108COUVE FLOR SARY 20000008.99
7898949447115BROCOLIS NINJA SA0000007.99
7898949447122CORACAO ALFACE AM0000007.89
7898949447153AGRIAO PIMENTA HI0000003.99
7898949447160COENTRO SARY     0000004.99
7898949447177ALFACE CRESPA SAR0000003.49
7898949447184ALFACE LISA SARY 0000003.99
7898949447191ALFACE ROXA SARY 0000005.99
7898949447207CHICORIA SARY    0000003.49
7898949447252RUCULA SARY      0000003.99
7898949447283COUVE CHINESA SAR0000006.99
7898949447290COUVE MANTEIGA SA0000003.99
7898949447306BROCOLIS NAC.SARY0000008.99
7898949447313MINI REPOLHO VERD0000006.49
7898949447320REPOLHO ROXO SARY0000006.89
7898949447412MIX ALFACE BABY S0000007.99
7898949447436MIX BROCOLIS/COUV0000008.99
7898949447467SALSAO MACO      0000007.99
7898949447481CORACAO ALFACE AM0000005.79
7898949447498ALHO PORO SARY 240000008.99
7898949447511CHEIRO VERDE SARY0000004.99
7898949731023BATATA PRIMEIRINH0000007.99
7898949731153CEBOLA 1KG PCT   0000004.99
7898949731184BATATA NATURAL PR0000011.98
7898949731191BATATA NATURAL PR0000017.98
7898950352156UVA ITALIA 500G  0000010.99
7898950373014MORANGO BDJA     0000007.99
7898951799004LARANJA PERA 3KG 0000011.79
7898952317139PIMENTAO VERMELHO0000009.99
7898952439619OVOS DE CODORNA C0000007.99
7898953148169SUCO PRATS LJA 900000014.99
7898953148220SUCO PRATS UVA 900000027.99
7898953148275SUCO PRATS LIMONA0000009.99
7898953148435SUCO PRATS GOIABA0000015.99
7898953148749SUCO PRATS GOIABA0000006.99
7898953148763SUCO PRATS LJA 200000005.69
7898953148770SUCO FRUITZ LJA A0000017.99
7898953148794SUCO PRATS UVA 200000008.99
7898953148831SUCO FRUITZ LJA A0000010.25
7898953148848SUCO PRATS LJA 200000006.78
7898953148855SUCO PRATS UVA 200000010.49
7898953148879SUCO PRATS LJA 1.0000023.49
7898954959245MILHO VERDE MAIS 0000007.89
7898954959580ALHO PORO UN     0000004.99
7898954959672ALFACE AMER.MAIS 0000005.87
7898954959689SALSAO MACO      0000007.99
7898954959733TOMATE GRAPE 180G0000002.99
7898954959801BROCOLIS MAIS VER0000005.99
7898954959818COUVE FLOR MAIS V0000008.99
7898954959856COGUMELO MAIS VER0000009.99
7898954959863COGUMELO MAIS VER0000009.99
7898954959870COGUMELO MAIS VER0000012.99
7898954959887ALHO PORO MAIS VE0000006.99
7898954999012UVA PRETA S/SEMEN0000007.99
7898954999074UVA BRANCA S/SEME0000010.99
7898954999197UVA VERMELHA S/SE0000007.99
7898954999203UVA BRANCA S/SEME0000010.99
7898955617397REQUEIJAO POCOS D0000009.98
7898955617403REQUEIJAO POCOS D0000009.98
7898955617519QUEIJO PRATO PRES0000007.49
7898955617526QUEIJO PRESIDENT 0000007.49
7898955617694QUEIJO PRESIDENT 0000021.49
7898956087014UVA BRANCA S/SEME0000010.99
7898956087106UVA VERMELHA S/SE0000007.99
7898956087113UVA PRETA S/SEMEN0000007.99
7898956087670UVA BRANCA S/SEME0000010.99
7898957190010UVA ROSADA/NIAGAR0000004.99
7898957190027UVA RUBI 500G    0000007.29
7898957190041UVA ITALIA 500G  0000010.99
7898957190065UVA PRETA S/SEMEN0000007.99
7898957190119UVA BRASIL 500G  0000007.88
7898957190126UVA ROSADA/NIAGAR0000004.99
7898957243600MACA ITALIANA SAL0000009.99
7898957243716MACA ORG.400G PCT0000014.99
7898957243730MACA ORG.400G PCT0000014.99
7898957243792TANGERINA S/SEMEN0000007.99
7898958911997OVOS DE CODORNA C0000007.99
7898958966041CARAMBOLA BDJA   0000010.99
7898959449079ALFACE GOURMET IS0000005.98
7898959449086SALSINHA HIDROPON0000002.98
7898959449123ALFACE GOURMET IS0000008.98
7898959807015ALECRIM AROMA E S0000005.97
7898959807022ALFAVACA AROMA E 0000005.97
7898959807039COENTRO AROMA E S0000005.97
7898959807046HORTELA AROMA E S0000005.97
7898959807053MANJERICAO AROMA 0000005.97
7898959807060MANJERONA AROMA E0000005.97
7898959807077SALVIA AROMA E SA0000005.97
7898959807084TOMILHO AROMA E S0000005.97
7898959807091CHEIRO VERDE AROM0000005.97
7898959807114LOURO AROMA E SAB0000005.97
7898959807138OREGANO AROMA E S0000005.97
7898959807145SALSA CRESPA AROM0000005.97
7898959807152SALSINHA AROMA E 0000005.97
7898959807169SALSAO AROMA E SA0000005.97
7898959807176TOMILHO LIMAO ARO0000005.97
7898959807190PIMENTA CAMBUCI A0000005.97
7898959807206PIMENTA DEDO DE M0000005.97
7898959807213ACAFRAO AROMA E S0000005.97
7898959807237ORA-PRO-NOBIS ARO0000005.97
7898959807244ERVA DOCE BULBO A0000006.49
7898959807251PIMENTA BIQUINHO 0000005.97
7898959807268PIMENTA MALAGUETA0000005.97
7898959807275GENGIBRE AROMA E 0000005.99
7898959807329PIMENTA JALAPENO 0000005.97
7898959807350PIMENTA HABANERO 0000005.97
7898959807367SALSAO AROMA E SA0000008.98
7898960399165SUCO SUPER SUCO N0000018.69
7898960399189SUCO SUPER SUCO N0000019.79
7898960399196SUCO SUPER SUCO N0000011.89
7898960399233SUCO SUPER SUCO N0000011.95
7898960399264SUCO SUPER SUCO N0000019.79
7898960399288MORANGO BDJA     0000007.99
7898960761016AGUA DE COCO PURI0000005.99
7898960761023AGUA DE COCO PURI0000016.99
7898960761122AGUA DE COCO PURI0000005.99
7898962349021OVOS PVC BCO C/300000015.99
7898962937112IOG.F.TREVISAN NA0000010.75
7898962937150IOG.F.TREVISAN NA0000010.49
7898962937167IOG.F.TREVISAN NA0000010.49
7898962937228IOG.F.TREVISAN S/0000012.49
7898962937235IOG.F.TREVISAN S/0000012.49
7898962937273IOG.F.TREVISAN NA0000019.88
7898962939055UVA VERMELHA S/SE0000007.99
7898962939062UVA PRETA S/SEMEN0000007.99
7898962939116UVA VERMELHA S/SE0000007.99
7898962939130UVA VERMELHA S/SE0000007.99
7898962939192UVA PRETA S/SEMEN0000007.99
7898962939222UVA VERMELHA S/SE0000007.99
7898962939260UVA PRETA S/SEMEN0000007.99
7898963213116QUEIJO MILD JOSEP0000041.05
7898963345091UVA VERMELHA S/SE0000007.99
7898963478775UVA ROSADA/NIAGAR0000004.99
7898963478881LARANJA PERA 3KG 0000011.79
7898963718017MIRTILO BDJA     0000007.99
7898964212088MORANGO BDJA     0000007.99
7898964329014UVA ROSADA/NIAGAR0000004.99
7898964329076UVA PRETA S/SEMEN0000007.99
7898964329113UVA BRANCA S/SEME0000010.99
7898964329427UVA PRETA S/SEMEN0000007.99
7898964329458MANGA ESPADA BDJA0000016.99
7898964736218QUEIJO CRUZILIA E0000018.90
7898964736225QUEIJO CRUZILIA G0000018.90
7898964736232QUEIJO CRUZILIA G0000018.90
7898964736249QUEIJO CRUZILIA D0000018.90
7898964736256QUEIJO CRUZILIA P0000018.90
7898964736270QUEIJO CRUZILIA E0000018.90
7898965759063UVA PRETA S/SEMEN0000007.99
7898965759070UVA BRANCA S/SEME0000010.99
7898965759094UVA BRANCA S/SEME0000010.99
7898965759148UVA VERMELHA S/SE0000007.99
7898965759179UVA VERMELHA S/SE0000007.99
7898965759186UVA BRANCA S/SEME0000010.99
7898965759193UVA VERMELHA S/SE0000007.99
7898965759216UVA PRETA S/SEMEN0000007.99
7898965759247UVA PRETA S/SEMEN0000007.99
7898965759254UVA BRANCA S/SEME0000010.99
7898965759261UVA VERMELHA S/SE0000007.99
7898965759322UVA VERMELHA S/SE0000007.99
7898965809010MORANGO 900G BDJA0000042.90
7898967366078CEBOLA ROXA REDIN0000005.99
7898967366146ALHO REDINHA 150G0000007.99
7898968097001COGUMELO SHITAKE 0000015.89
7898968097384BROCOLIS UN      0000005.99
7898968099005MIRTILO BDJA     0000007.99
7898969070003RUCULA HIDROPONIC0000003.98
7898969070027ALFACE LISA BABY 0000002.99
7898969070034ALFACE ROXA BABY 0000003.49
7898969070041MIX BABY DEGA HOR0000003.99
7898969070065ALFACE LISA BABY 0000004.99
7898969070072MIX ALFACE BABY L0000005.99
7898969070089ALFACE CRESPA HID0000002.98
7898969070096ALFACE MIMOSA HID0000002.98
7898969070102AGRIAO HIDROPONIC0000002.99
7898969070119ALFACE FRISEE DEG0000003.49
7898969070164TRIO ALFACE CRESP0000003.99
7898969133012OVOS PVC BCO C/300000015.99
7898969133074OVOS BCO GDE C/120000007.99
7898969175005COGUMELO PARIS AM0000006.79
7898969175012COGUMELO SHITAKE 0000015.89
7898969175029COGUMELO SHIMEJI 0000016.98
7898969175036COGUMELO SALMAO A0000010.98
7898969175043COGUMELO PLEUROTU0000011.98
7898969175050COGUMELO PORTOBEL0000011.98
7898969175067COGUMELO PARIS AM0000009.69
7898969175074COGUMELO ERYNGUI 0000019.98
7898969175081BROCOLIS UN      0000005.99
7898969175180BROCOLIS UN      0000005.99
7898969175197COGUMELO SHITAKE 0000012.98
7898969175203COGUMELO PORTOBEL0000006.98
7898969573412QUEIJO CRUZILIA D0000031.99
7898969573443QUEIJO CRUZILIA C0000022.99
7898969573450QUEIJO CRUZILIA B0000021.99
7898971050024MIRTILO BDJA     0000007.99
7898972010065CAJU BDJA        0000015.99
7898972010072CAJU BDJA        0000015.99
7898976897006COCO VERDE AUTENT0000010.99
7898977361032UVA PRETA S/SEMEN0000007.99
7898977361049UVA BRANCA S/SEME0000010.99
7898977361056UVA VERMELHA S/SE0000007.99
7898994174844UVA BRANCA S/SEME0000010.99
7898994248415KIWI 500G BDJA   0000009.99
7898994301813MIRTILO BDJA     0000007.99
7898994434313BATATA PRIMEIRINH0000007.99
7898994600787MORANGO BDJA     0000007.99
7898994665564CEBOLA SANTA TERE0000004.99
7898994665571CEBOLA SANTA TERE0000004.99
7898994718611MORANGO BDJA     0000007.99
7898994928935AMEIXA 500G BDJA 0000004.99
7898994937173AMEIXA 500G BDJA 0000004.99
7898996026615SUCO MITZ LJA 9000000013.90
7898996026660SUCO MITZ LJA 3000000005.99
7898996026691SUCO MITZ LJA 1.70000022.90
7898996110833LARANJA PERA 3KG 0000011.79
7898996140106TOMATE GRAPE OURO0000003.99
7898996159702KIWI 500G BDJA   0000009.99
7898996428907TOMATE GRAPE 180G0000002.99
7898996428921TOMATE GRAPE 500G0000006.99
7899082300527CAJU BDJA        0000015.99
7899085607616BROCOLIS ORG.300G0000008.99
7899085607678ALFACE AMER.MAO N0000005.99
7899085607692COUVE FLOR MAO NA0000007.99
7899085607920ACELGA MAO NA MAS0000005.99
